:020000040000FA
:060000000A128A110C280F
:10000800FE00030EF1000A08F2000A128A11872A7C
:100018000A128A110F28F601F701F801F901FA010D
:1000280083010A128A11622983120313A100A00115
:10003800A20123282108F03EF3007308A100103024
:1000480021020318282829281E2810302102031805
:100058002E282F2884282108F3007308A00084285C
:100068003F30F3007308A200BE280630F30073087F
:10007800A200BE285B30F3007308A200BE284F30F0
:10008800F3007308A200BE286630F3007308A200CC
:10009800BE286D30F3007308A200BE287D30F3003F
:1000A8007308A200BE280730F3007308A200BE2818
:1000B8007F30F3007308A200BE286730F30073088E
:1000C800A200BE287730F3007308A200BE287C3057
:1000D800F3007308A200BE283930F3007308A200A9
:1000E800BE285E30F3007308A200BE287930F30002
:1000F8007308A200BE287130F3007308A200BE285E
:100108002008F300F4017408003A03198C28BE286B
:100118007308003A03193428013A03193928033AB5
:1001280003193E28013A03194328073A03194828B6
:10013800013A03194D28033A03195228013A0319C1
:1001480057280F3A03195C28013A03196128033A22
:1001580003196628013A03196B28073A031970280E
:10016800013A03197528033A03197A28013A031941
:100178007F28BE282208080083120313A100A001CB
:10018800A201CF282108F03EF3007308A100013036
:10019800F3007308A007103021020318D428D528CB
:1001A800C62826293F30F3007308A20060290630CC
:1001B800F3007308A20060295B30F3007308A20003
:1001C80060294F30F3007308A20060296630F300FD
:1001D8007308A20060296D30F3007308A20060293B
:1001E8007D30F3007308A20060290730F30073081C
:1001F800A20060297F30F3007308A20060296730ED
:10020800F3007308A20060297730F3007308A20096
:1002180060297C30F3007308A20060293930F300AC
:100228007308A20060295E30F3007308A2006029F9
:100238007930F3007308A20060297130F300730865
:10024800A20060292008F300F4017408003A031999
:100258002E2960297308003A0319D628013A031990
:10026800DB28033A0319E028013A0319E528073A7D
:100278000319EA28013A0319EF28033A0319F42865
:10028800013A0319F9280F3A0319FE28013A03190C
:100298000329033A03190829013A03190D29073AD2
:1002A80003191229013A03191729033A03191C29BA
:1002B800013A031921296029220808008316031727
:1002C800880101308900831603138501C130860037
:1002D800870188018901831203138501860187013B
:1002E8008801890183160313811316179617C030E6
:1002F800950007300A128A11DE210A128A1103308A
:100308000A128A113A220A128A11E7308312031359
:1003180081000230A3002308F3000C300A128A116E
:10032800CA220A128A110F3083120313A300A30BE7
:100338009B299E29831203139F140B1783160313FB
:100348000C17831203130C138B150B108B160B1140
:100358008B179F18B029B129BB290F3083120313BB
:10036800A300A30BB529B829831203139F14780897
:100378000A128A11C0200A128A1183120313A300D9
:100388002308F70078080A128A1118200A128A111D
:1003980083120313A3002308F600780879020318D0
:1003A800D629D729D9290815AD290811AD290A1246
:1003B8008A110C28F500142A8F30831603138F0531
:1003C800362A831603130F088F3910388F00362A00
:1003D800831603130F088F3920388F00362A8316A7
:1003E80003130F088F3930388F00362A831603130A
:1003F8000F088F3940388F00362A831603130F08E9
:100408008F3950388F00362A831603130F088F3917
:1004180060388F00362A7030831603138F04362A0B
:100428007508F300F4017408003A03191C2A362AE7
:100438007308013A0319E029033A0319E529013A37
:100448000319EC29073A0319F329013A0319FA2980
:10045800033A0319012A013A0319082A0F3A031922
:100468000F2A362A831603130F140800F500831683
:10047800031381128111642AF8308105862A010844
:10048800F83901388100862A0108F83902388100D4
:10049800862A0108F83903388100862A0108F839C4
:1004A80004388100862A0108F83905388100862A2F
:1004B8000108F83906388100862A07308104862A1F
:1004C8007508F300F4017408003A03196C2A862AA7
:1004D8007308013A0319402A033A0319432A013AD7
:1004E8000319482A073A03194D2A013A0319522ACF
:1004F800033A0319572A013A03195C2A0F3A0319D8
:10050800612A862A0800831203130C1F8C2A8D2A5D
:10051800922A1E08F0007008F8000C130B1D952A8B
:10052800962AAC2A0B11E7308100081088107A034C
:10053800031D9F2AA02AA62A770887000814881076
:10054800FA01AC2A7608870008108814FA01FA0A1A
:100558000B1CAF2AB02AC32A061BB32AB42AB82A0E
:100568000130F00070088507861BBB2ABC2ABE2A0A
:10057800013085020508F0007008F9000B107208B8
:100588008A00710E8300FE0E7E0E0900831203138B
:10059800A000E02A3F309F05F62A1F083F3940385F
:1005A8009F00F62A1F083F3980389F00F62A1F0847
:1005B8003F3980389F00F62A7308F400F501750862
:1005C800003A0319E82AF62A7408013A0319CE2AD0
:1005D800033A0319D12A013A0319D62A073A03190B
:1005E800DB2AF62A2008F400F40DF40D1F0874061F
:1005F800C33974069F001F14831603139F139F1299
:100608001F12831203139E01831603139E01080011
:04400E00D420FF3F7C
:00000001FF
