:020000040000FA
:060000000A128A11F82F1C
:1008CE00F1007108831203138800091089100915AD
:1008DE001A30F000F00B712C000083120313091173
:1008EE001A30F000F00B792C00000800F3007308AA
:1008FE000319822C832C8B2C7208C03E0A128A118B
:10090E0067240A128A11922C7208803E0A128A11EA
:10091E0067240A128A110800F300A62C4230F20056
:10092E00F20B972C00007308840000080A128A113B
:10093E00AE240A128A110130F2007208F30773080E
:10094E0084000008031DAC2CAD2C952C0800F10082
:10095E004230F000F00BB12C00007108831203132B
:10096E008800091489100630F000F00BBC2C000032
:10097E008312031309150630F000F00BC42C00008F
:10098E008312031309110800F200831203131013CC
:10099E009010E12CCF309005F72C1008CF3910387D
:1009AE009000F72C1008CF3920389000F72C3030FB
:1009BE009004F72C7208F000F1017108003A031947
:1009CE00E92CF72C7008013A0319D12C033A0319BC
:1009DE00D42C063A0319D92C0C3A0319DE2CF72C19
:1009EE000800831203138801091089103430F300B4
:1009FE00F130F200F20B012DF30B012D062D3030EC
:100A0E000A128A1167240A128A110D30F300FB3084
:100A1E00F200F20B102DF30B102D152D30300A12A3
:100A2E008A1167240A128A118530F200F20B1D2DED
:100A3E0030300A128A1167240A128A1138300A12CB
:100A4E008A1167240A128A110C300A128A1167243D
:100A5E000A128A1106300A128A1167240A128A11A2
:100A6E000800F501F6017008710403193F2D402DA1
:100A7E00772DF701F70A4E2D01300310F00DF10D11
:100A8E00FF3E031D442D0130F4007408F707F11FDB
:100A9E00512D522D432D01300310F50DF60DFF3E55
:100AAE00031D532D71087302031D5F2D7008720212
:100ABE00031C622D632D6A2D7008F2027108031C4F
:100ACE00F303F302751401300310F10CF00CFF3E2A
:100ADE00031D6B2D0130F702031D762D772D522D40
:100AEE007608F1007508F0000800F200B22D8F3084
:100AFE00831603138F05D42D831603130F088F3916
:100B0E0010388F00D42D831603130F088F39203819
:100B1E008F00D42D831603130F088F3930388F00B2
:100B2E00D42D831603130F088F3940388F00D42D20
:100B3E00831603130F088F3950388F00D42D831668
:100B4E0003130F088F3960388F00D42D7030831641
:100B5E0003138F04D42D7208F000F1017108003ACE
:100B6E000319BA2DD42D7008013A03197E2D033ABC
:100B7E000319832D013A03198A2D073A0319912D72
:100B8E00013A0319982D033A03199F2D013A0319BF
:100B9E00A62D0F3A0319AD2DD42D831603130F1462
:100BAE000800F501F301F401EA2D70089C3EF000F7
:100BBE0071080318013EFF3EF1000130F3070318E0
:100BCE00F40A0030F4070030710264300319700229
:100BDE000318F22DF32DDC2D262E3030F200720884
:100BEE00F5004B2E3130F2007208F5004B2E3230EC
:100BFE00F2007208F5004B2E3330F2007208F50049
:100C0E004B2E3430F2007208F5004B2E3530F200C8
:100C1E007208F5004B2E3630F2007208F5004B2E9E
:100C2E003730F2007208F5004B2E3830F2007208A1
:100C3E00F5004B2E3930F2007208F5004B2E740879
:100C4E00003A03192B2E4B2E7308003A0319F42D7C
:100C5E00013A0319F92D033A0319FE2D013A03192E
:100C6E00032E073A0319082E013A03190D2E033AE3
:100C7E000319122E013A0319172E0F3A03191C2EBF
:100C8E00013A0319212E4B2E75080800F501F301C8
:100C9E00F401592E70089C3EF00071080318013EB5
:100CAE00FF3EF10000307102643003197002031828
:100CBE00612E622E512E712E7008F63EF0007108D4
:100CCE000318013EFF3EF1000130F3070318F40A4A
:100CDE000030F407003071020A3003197002031855
:100CEE00792E7A2E632EAD2E3030F2007208F5007A
:100CFE00D22E3130F2007208F500D22E3230F200D0
:100D0E007208F500D22E3330F2007208F500D22EA2
:100D1E003430F2007208F500D22E3530F20072082F
:100D2E00F500D22E3630F2007208F500D22E373092
:100D3E00F2007208F500D22E3830F2007208F5007B
:100D4E00D22E3930F2007208F500D22E7408003A15
:100D5E000319B22ED22E7308003A03197B2E013AD4
:100D6E000319802E033A0319852E013A03198A2E90
:100D7E00073A03198F2E013A0319942E033A0319D9
:100D8E00992E013A03199E2E0F3A0319A32E013AFA
:100D9E000319A82ED22E75080800F501F301F401EF
:100DAE00E02E70089C3EF00071080318013EFF3ED5
:100DBE00F100003071026430031970020318E82E3E
:100DCE00E92ED82EF22E7008F63EF00071080318A8
:100DDE00013EFF3EF100003071020A30031970022D
:100DEE000318FA2EFB2EEA2E003071020A30031978
:100DFE0070020318032F042F3B2F7108F4007008A4
:100E0E00F3003B2F3030F2007208F500602F3130C6
:100E1E00F2007208F500602F3230F2007208F50011
:100E2E00602F3330F2007208F500602F3430F2007C
:100E3E007208F500602F3530F2007208F500602F51
:100E4E003630F2007208F500602F3730F20072086B
:100E5E00F500602F3830F2007208F500602F39303F
:100E6E00F2007208F500602F7408003A0319402F43
:100E7E00602F7308003A0319092F013A03190E2F38
:100E8E00033A0319132F013A0319182F073A0319BE
:100E9E001D2F013A0319222F033A0319272F013A66
:100EAE0003192C2F0F3A0319312F013A0319362F3C
:100EBE00602F7508080083160317880189018316B1
:100ECE000313850102308600870188018901831290
:100EDE0003138501860187018801890108300A12F2
:100EEE008A117C250A128A1101300A128A11CB242A
:100EFE000A128A11831203138E018F010A128A11AC
:100F0E00F8240A128A118312031306140930F8000A
:100F1E00F80B8F2F922F8312031306108E018F0161
:100F2E00861C9A2F9B2F972F101486189F2FA02F59
:100F3E009C2F10103A30F0000030F1000F08F9002D
:100F4E000E08F8000310F90CF80C7808F200790876
:100F5E00F3000A128A1138250A128A117108FB0051
:100F6E007008FA007B08F1007A08F0000A128A1164
:100F7E00D8250A128A11F8007808FC007B08F100C7
:100F8E007A08F0000A128A114D260A128A11F80008
:100F9E007808FD007B08F1007A08F0000A128A1129
:100FAE00D4260A128A11F8007808FE00F2010030E9
:100FBE000A128A117D240A128A114230F800F80BA7
:100FCE00E62F00007C300A128A1193240A128A112D
:100FDE004230F800F80BF12F00008A2F0A128A1106
:100FEE000028FA01FB01FC01FD0183010A128A119E
:020FFE00622F60
:04400E00D420FF3F7C
:00000001FF
