:020000040000FA
:060000000A128A110C280F
:10000800FE00030EF1000A08F2000A128A11992A6A
:100018000A128A110F280A128A1102230A128A1157
:10002800FA00A001A101A201A301A401F801F901AC
:1000380083010A128A11202883160317880189016F
:100048008316031385010330860088018901831212
:10005800031385018601870188018901831603132B
:100068008113161496140330950008300A128A1169
:100078003D220A128A110A128A11EE220A128A11E4
:100088008B178B150B100B17831603138C16831203
:1000980003138C127A030319522853284E28FA01A5
:1000A800FA0ABA2879080A128A11CD210A128A1185
:1000B80083120313A5002508A20079080A128A11E1
:1000C80051210A128A1183120313A5002508A300DF
:1000D80079080A128A11CF200A128A11831203138F
:1000E800A5002508A400F8019828023083120313FC
:1000F800A7000430A600B930A500A50B8128A60BDF
:100108008128A70B81288828831203130C1E8D28A9
:100118008E2894287808223E8400831300089900CA
:100128000130A5002508F80722300A128A11D522C5
:100138000A128A11780883120313A500A60174080D
:100148002602031DA92873082502031CAC28AD2824
:1001580079284E287A030319B228B328AE288312C7
:1001680003131A088500FA01FA0A4E2883120313AA
:100178002108A500A6012608003A0319C4284E281C
:100188002508613A03195628033A0319AE284E2860
:100198000A128A110C28F700F601F501D828770809
:1001A8009C3EF3007308F700643077020318DD28DB
:1001B800DE28D328E4287708F63EF3007308F70012
:1001C8000A3077020318E928EA28DF280A3077027C
:1001D8000318EF28F02827297708F3007308F5009B
:1001E80027293030F3007308F6004F293130F30027
:1001F8007308F6004F293230F3007308F6004F29D0
:100208003330F3007308F6004F293430F3007308D5
:10021800F6004F293530F3007308F6004F293630C1
:10022800F3007308F6004F293730F3007308F6001F
:100238004F293830F3007308F6004F293930F3009E
:100248007308F6004F297508F300F4017408003AA2
:1002580003192F294F297308003A0319F528013A81
:100268000319FA28033A0319FF28013A0319042944
:10027800073A03190929013A03190E29033A031900
:100288001329013A031918290F3A03191D29013AAC
:10029800031922294F2976080800F700F601F5010D
:1002A8005A2977089C3EF3007308F70064307702F8
:1002B80003185F29602955296A297708F63EF30053
:1002C8007308F7000130F3007308F5070A30770266
:1002D80003186F2970296129A3293030F3007308A6
:1002E800F600CB293130F3007308F600CB29323001
:1002F800F3007308F600CB293330F3007308F600D7
:10030800CB293430F3007308F600CB293530F300DD
:100318007308F600CB293630F3007308F600CB29B2
:100328003730F3007308F600CB293830F300730830
:10033800F600CB293930F3007308F600CB2975088D
:10034800F300F4017408003A0319AB29CB297308A8
:10035800003A03197129013A03197629033A031956
:100368007B29013A03198029073A03198529013A9B
:1003780003198A29033A03198F29013A0319942981
:100388000F3A03199929013A03199E29CB297608AE
:100398000800F600F701F501DA2976089C3EF3001B
:1003A8007308F6000130F3007308F507643076022D
:1003B8000318DF29E029D129132A3030F300730804
:1003C800F7003B2A3130F3007308F7003B2A32303C
:1003D800F3007308F7003B2A3330F3007308F70083
:1003E8003B2A3430F3007308F7003B2A3530F3001A
:1003F8007308F7003B2A3630F3007308F7003B2AEE
:100408003730F3007308F7003B2A3830F3007308DD
:10041800F7003B2A3930F3007308F7003B2A7508C8
:10042800F300F4017408003A03191B2A3B2A7308E5
:10043800003A0319E129013A0319E629033A031995
:10044800EB29013A0319F029073A0319F529013A6A
:100458000319FA29033A0319FF29013A0319042A4F
:100468000F3A0319092A013A03190E2A3B2A770879
:100478000800F500732A8F30831603138F05952A19
:10048800831603130F088F3910388F00952A8316A7
:1004980003130F088F3920388F00952A831603130A
:1004A8000F088F3930388F00952A831603130F08E9
:1004B8008F3940388F00952A831603130F088F3918
:1004C80050388F00952A831603130F088F39603828
:1004D8008F00952A7030831603138F04952A7508A8
:1004E800F300F4017408003A03197B2A952A73086B
:1004F800013A03193F2A033A0319442A013A031916
:100508004B2A073A0319522A013A0319592A033A7E
:100518000319602A013A0319672A0F3A03196E2A48
:10052800952A831603130F1408000B1C9C2A9D2A76
:10053800C22A831203130618A22AA32AAF2A080A7A
:10054800031DA72AA82AAA2A8801BD2A0130F0007B
:1005580070088807BD2A8618B22AB32ABD2A080857
:10056800031DB72AB82ABB2AFF308800BD2A0130EC
:1005780088020808F0007008F9000B1083120313B2
:100588008C1EC72AC82ACE2A1A08F0007008A100B3
:100598008C12FA0172088A00710E8300FE0E7E0E1C
:1005A8000900F6007608F5007508F700DF2A013023
:1005B800F5007508F7077708840083130008031D02
:1005C800E62AE72ADB2A76087702F300F401F31B10
:1005D800F403080083160313181398161812181535
:1005E8008312031398171813181683160317871501
:0E05F800CF308316031399009A0108000134D6
:04400E00D420FF3F7C
:00000001FF
