:020000040000FA
:060000000A128A110C280F
:10000800FE00030EF1000A08F2000A128A116A299A
:100018000A128A110F280A128A11CC210A128A118F
:10002800F8000A128A11CD210A128A11F900F50185
:10003800F601F70183010A128A1122288316031791
:1000480088018901831603138501E0308600870142
:1000580088018901831203138501860187018801BC
:100068008901831603138113961616179617E03025
:1000780095000F178F160F120F14811281110108A6
:10008800F8390538810063308312031381008B151A
:100098000B108B160B118B17812883120313850104
:1000A800D8280130831203138500D8280230831220
:1000B80003138500D8280430831203138500D82839
:1000C8000830831203138500D828103083120313D5
:1000D8008500D8282030831203138500D8284030A3
:1000E800831203138500D8288030831203138500F8
:1000F800F701F70A06148610D8287608F300F401E9
:100108007408003A03198928D8287308003A031993
:100118005128013A03195528033A03195A28013A74
:1001280003195F28073A03196428013A0319692853
:10013800033A03196E28013A031973280F3A031971
:100148007828D828831203138801FD2801308312E8
:1001580003138800FD280230831203138800FD284A
:100168000430831203138800FD2808308312031318
:100178008800FD281030831203138800FD282030E2
:10018800831203138800FD2840308312031388006C
:10019800FD2880308312031388000230F3007308AF
:1001A800F70006108614FD287508F300F40174089A
:1001B800003A0319E028FD287308003A0319A62815
:1001C800013A0319AA28033A0319AF28013A031977
:1001D800B428073A0319B928013A0319BE28033A83
:1001E8000319C328013A0319C8280F3A0319CD285F
:1001F800FD2803307806031902290329092902304A
:100208007806031D082909290E29831203130914E6
:10021800891009117803031D12291329182983123B
:100228000313091089140911770803191C291D29BA
:1002380028297808031D2129222928298312031334
:1002480009148914091532297808031D2C292D2928
:100258003229831203130910891009157703031D26
:10026800362937293C290630831203138700812851
:1002780002307706031D4129422951295B30831238
:100288000313870081283F308312031387008128D6
:100298004F3083120313870081287808F300F40194
:1002A8007408003A0319592981287308003A031978
:1002B8004729013A03193729033A03194229013A10
:1002C80003194C2981280A128A110C280B1D6D2943
:1002D8006E2986290B116330831203138100790874
:1002E8000319772978297B290130F9028629643096
:1002F800F0007008F90078080319832984298629F1
:100308000130F8020B1C89298A29C5298312031395
:10031800861A8F2990299F290330F0007008F80069
:100328006430F0007008F900F701F601F501850165
:10033800880106108610061BA229A329B22978086D
:10034800031DA729A829B229023077060319AD2968
:10035800AE29B2290130F0007008F607861BB529CE
:10036800B629C4297808031DBA29BB29C4297703EB
:100378000319BF29C029C4290130F0007008F50706
:100388000B1072088A00710E8300FE0E7E0E0900A3
:040398000334643492
:04400E00D420FF3F7C
:00000001FF
