:020000040000FA
:060000000A128A110C280F
:10000800FE00030EF1000A08F2000A128A111528F0
:100018000A128A110F28F601F70183010A128A11C0
:10002800F428831203138C1D1A281B286D28141218
:10003800141B1F2820282428941F232824282B2811
:100048001308F0007008F70014139413141683169D
:100058000313941A302831284928141934283528CC
:100068004928831203131308F0007008F7008C1155
:10007800141683160313141C422843283D28A6305F
:10008800F000F00B452800006A28941A4C284D28E7
:100098006A28141D502851286A288312031313084C
:1000A800F0007008F700831603131410831203136B
:1000B800080893001416A630F000F00B6128000021
:1000C80083160313141869286A28642883120313F3
:1000D8008C110B1C70287128912806187428752813
:1000E80082280F300806031D7A287B287D2888017E
:1000F80090280130F0007008880790288618852815
:10010800862890280808031D8A288B288E280F30F7
:1001180088009028013088020B1072088A00710E3E
:100128008300FE0E7E0E0900F500CE288F30831660
:1001380003138F05F028831603130F088F3910381F
:100148008F00F028831603130F088F3920388F008B
:10015800F028831603130F088F3930388F00F028E2
:10016800831603130F088F3940388F00F028831641
:1001780003130F088F3950388F00F02883160313A4
:100188000F088F3960388F00F028703083160313FA
:100198008F04F0287508F300F4017408003A031975
:1001A800D628F0287308013A03199A28033A031944
:1001B8009F28013A0319A628073A0319AD28013ADE
:1001C8000319B428033A0319BB28013A0319C228B2
:1001D8000F3A0319C928F028831603130F140800CF
:1001E80083160317880189018316031385010330D9
:1001F800860088018901831203138501860187011E
:100208008801890183160313811316149614033089
:10021800950008300A128A1198200A128A11C030F3
:100228000A128A1120210A128A118B150B108B17BA
:100238001C290A128A110C28F30073088316031369
:10024800930036308312031394008030831603130F
:10025800940001309100871507168B170B1783122E
:0C02680003138C11831603138C1508007F
:04400E00D420FF3F7C
:00000001FF
