:020000040000FA
:060000000A128A110E280D
:10000800FE00030E83120313A7000A08A8000A12B1
:100018008A110A290A128A111128FB018312031373
:10002800AF01B001B101B201B301B401B501B6012C
:10003800B70183010A128A11212803308316031796
:100048008800890103308316031385008601870120
:1000580088018901831203138501860187018801BC
:10006800890107300A128A11DE210A128A110A123E
:100078008A113C220A128A11023083120313AE003D
:100088002E08A90000300A128A1183220A128A1146
:100098000F3083120313AE00AE0B5028532883127F
:1000A80003139F140B17831603130C1783120313E0
:1000B8000C138B179F18612862286C280F30831245
:1000C8000313AE00AE0B66286928831203139F142E
:1000D800AB0100300A128A1155230A128A11203006
:1000E80083120313AE00AE0B7728000001300A120A
:1000F8008A11C5220A128A11203083120313AE0016
:10010800AE0B842800008312031337080A128A11E1
:1001180098200A128A1183120313AE002E08B40025
:100128005E280A128A110E2883120313AC00AD014F
:10013800AB01A7282C089C3EA9002908AC00013077
:10014800A9002908AB0764302C020318AC28AD2895
:100158009E28E0283030A9002908AD000829313050
:10016800A9002908AD0008293230A9002908AD00E6
:1001780008293330A9002908AD0008293430A9001E
:100188002908AD0008293530A9002908AD0008293B
:100198003630A9002908AD0008293730A9002908F8
:1001A800AD0008293830A9002908AD0008293930E0
:1001B800A9002908AD0008292B08A900AA012A08C6
:1001C800003A0319E82808292908003A0319AE2833
:1001D800013A0319B328033A0319B828013A031955
:1001E800BD28073A0319C228013A0319C728033A58
:1001F8000319CC28013A0319D1280F3A0319D62834
:10020800013A0319DB2808292D0808000C1F0D29BD
:100218000E296E291F0CA400240C0F39003A031D67
:10022800162917293F29FF30F6000030F7001E086D
:10023800A400A5012408F0002508F100F430F2001C
:100248000130F3000A128A1116230A128A11710862
:10025800F9007008F8000A128A1175210A128A1129
:10026800760883120313A6002608B7001F08C339AF
:1002780004389F006D291F0CA400240C0F39013A83
:10028800031D472948296D29FF30F6000030F70083
:100298001E08A400A5012408F0002508F100F43088
:1002A800F2000130F3000A128A1116230A128A1189
:1002B8007108F9007008F8000A128A1175210A12EB
:1002C8008A11760883120313A6002608FB00C330A0
:1002D8009F050C1328088A00270E8300FE0E7E0E49
:1002E800090083120313A101F71F7B297C298329A5
:1002F800F609F709F60A0319F70AA101A10AF91F75
:10030800862987299029F809F909F80A0319F90AA9
:100318000130FA007A08A106A201A3017608770441
:10032800031997299829CF29A001A00AA6290130E5
:100338000310F60DF70DFF3E031D9C290130FA004E
:100348007A08A007F71FA929AA299B2901300310B9
:10035800A20DA30DFF3E031DAB2977087902031DEB
:10036800B72976087802031CBA29BB29C22976085E
:10037800F8027708031CF903F9022214013003106C
:10038800F70CF60CFF3E031DC3290130A002031D24
:10039800CE29CF29AA2921080319D329D429D92953
:1003A800A209A309A20A0319A30A2308F70022082D
:1003B800F600080083120313AB00162A8F30831649
:1003C80003138F05382A831603130F088F39103843
:1003D8008F00382A831603130F088F3920388F00AF
:1003E800382A831603130F088F3930388F00382ABC
:1003F800831603130F088F3940388F00382A831665
:1004080003130F088F3950388F00382A83160313C7
:100418000F088F3960388F00382A7030831603131D
:100428008F04382A2B08A900AA012A08003A0319C0
:100438001E2A382A2908013A0319E229033A03191E
:10044800E729013A0319EE29073A0319F529013A70
:100458000319FC29033A0319032A013A03190A2A42
:100468000F3A0319112A382A831603130F140800A8
:10047800831203138801071087101A30831203139D
:10048800AC00F730AB00AB0B472AAC0B472A4C2A21
:1004980030300A128A113B230A128A11073083125C
:1004A8000313AC007C30AB00AB0B582AAC0B582ABA
:1004B800000030300A128A113B230A128A11413097
:1004C80083120313AB00AB0B672A6A2A30300A1277
:1004D8008A113B230A128A1138300A128A113B23E7
:1004E8000A128A110C300A128A113B230A128A1145
:1004F80006300A128A113B230A128A110800831255
:100508000313AC00992A3F309F05AF2A1F083F39D3
:1005180040389F00AF2A1F083F3980389F00AF2A14
:100528001F083F3980389F00AF2A2908AA00AB016D
:100538002B08003A0319A12AAF2A2A08013A0319FD
:10054800872A033A03198A2A013A03198F2A073A94
:100558000319942AAF2A2C08AA00AA0DAA0D1F086D
:100568002A06C3392A069F001F14831603139F13F4
:100578009F121F12831203139E01831603139E01F9
:10058800080083120313AC00E42A203083120313FB
:10059800AB00AB0BCD2A0000831203132C08840098
:1005A8000A128A116D230A128A110A128A11F1227B
:1005B8000A128A11013083120313AB002B08AC070F
:1005C8002C0884000A128A116D230A128A11003A33
:1005D800031DEF2AF02AC92A080083120313AA0070
:1005E800203083120313A900A90BF82A00008312F4
:1005F80003132A0888000714871002308312031394
:10060800A900A90B052B000083120313071502305C
:1006180083120313A900A90B0F2B000083120313E5
:1006280007110800F401F501701C1B2B1C2B222B51
:100638007208F4070318F50A7308F5070130031068
:10064800F20DF30DFF3E031D232B01300310F10CB7
:10065800F00CFF3E031D2A2B70087104031D352B77
:10066800362B182B7508F1007408F0000800831267
:100678000313AA002A0888000710871007150C30F2
:1006880083120313A900A90B472B0000831203133D
:1006980007110C3083120313A900A90B512B00007A
:1006A800080083120313AC002C0803195C2B5D2B84
:1006B800652B2B08C03E0A128A113B230A128A11A5
:1006C8006C2B2B08803E0A128A113B230A128A11CE
:1006D800080003308A000408840A8207003453346F
:1006E80031343A34203420342034203453343234F2
:1006F8003A34203420342034533433343A340034F8
:04400E00D420FF3F7C
:00000001FF
