:020000040000FA
:060000000A128A110E280D
:10000800FE00030E83120313A6000A08A7000A12B3
:100018008A1151290A128A11112883133630840053
:1000280046300A128A11B7230A128A1183010A126A
:100038008A11D32883120313B4010030B3000030AF
:10004800B2000030B1000030B0005C289C30831250
:100058000313AC00FF30AD00FF30AE00FF30AF003F
:100068002808AC0729080318290F3B283C28AD07A6
:100078002A0803182A0F41284228AE072B0803181C
:100088002B0AAF072F08AB002E08AA002D08A900DD
:100098002C08A8000130B007003003180130B10760
:1000A800003003180130B207003003180130B307DD
:1000B8002B08031D6C282A08031D6C282908031D1A
:1000C8006C2864302802031D692803186C286D28E1
:1000D8002A28A0283030AC002C08B400D1283130B0
:1000E800AC002C08B400D1283230AC002C08B40085
:1000F800D1283330AC002C08B400D1283430AC00FF
:100108002C08B400D1283530AC002C08B400D12814
:100118003630AC002C08B400D1283730AC002C089D
:10012800B400D1283830AC002C08B400D1283930BC
:10013800AC002C08B400D128831203133308003A0A
:100148000319CC28D1283108003A0319AC28D12842
:100158003008003A03196E28013A03197328033A44
:1001680003197828013A03197D28073A03198228C8
:10017800013A03198728033A03198C28013A03190D
:1001880091280F3A03199628013A03199B28D12878
:100198003208003A0319A728D12834080800033088
:1001A800831603178800890103308316031385001B
:1001B800860187018801890183120313850186015D
:1001C80087018801890107300A128A112F220A1231
:1001D8008A110A128A118D220A128A110230831298
:1001E8000313B5003508A80000300A128A11D4227A
:1001F8000A128A110F3083120313B500B50B0229B6
:100208000529831203139F140B17831603130C1766
:10021800831203130C138B17831203139F181529CA
:10022800162920290F3083120313B500B50B1A299C
:100238001D29831203139F144108AB004008AA002C
:100248003F08A9003E08A8000A128A111E200A12B7
:100258008A1183120313B5003508C300AA010030C0
:100268000A128A119F230A128A112030831203135B
:10027800B500B50B3D29000043300A128A11162338
:100288000A128A11203083120313B500B50B4A29CC
:10029800000010290A128A110E280C1F542955290A
:1002A800BF291F0CA400240C0F39003A031D5D2937
:1002B8005E298B29FF30F6000030F7001E08A400E5
:1002C800A5012408F0002508F100F430F2000130FF
:1002D800F3000A128A1160230A128A117108F900C0
:1002E8007008F8000A128A11C6210A128A117608C3
:1002F80083120313BE007708BF000030BF1BFF3016
:10030800C000C1001F08C33904389F00BE291F0C54
:10031800A400240C0F39013A031D93299429BE29FE
:10032800FF30F6000030F7001E08A400A5012408DD
:10033800F0002508F100F430F2000130F3000A1251
:100348008A1160230A128A117108F9007008F800EE
:100358000A128A11C6210A128A1176088312031317
:10036800BA007708BB000030BB1BFF30BC00BD00E3
:10037800C3309F050C1327088A00260E8300FE0E43
:100388007E0E090083120313A101F71FCC29CD2982
:10039800D429F609F709F60A0319F70AA101A10AEF
:1003A800F91FD729D829E129F809F909F80A031901
:1003B800F90A0130FA007A08A106A201A301760819
:1003C80077040319E829E929202AA001A00AF729B6
:1003D80001300310F60DF70DFF3E031DED29013026
:1003E800FA007A08A007F71FFA29FB29EC2901303F
:1003F8000310A20DA30DFF3E031DFC297708790207
:10040800031D082A76087802031C0B2A0C2A132AD3
:100418007608F8027708031CF903F9022214013060
:100428000310F70CF60CFF3E031D142A0130A0023E
:10043800031D1F2A202AFB2921080319242A252AFB
:100448002A2AA209A309A20A0319A30A2308F70062
:100458002208F600080083120313AA00672A8F30C7
:10046800831603138F05892A831603130F088F3900
:1004780010388F00892A831603130F088F39203804
:100488008F00892A831603130F088F3930388F009D
:10049800892A831603130F088F3940388F00892A59
:1004A800831603130F088F3950388F00892A831653
:1004B80003130F088F3960388F00892A703083162C
:1004C80003138F04892A2A08A800A9012908003AD9
:1004D80003196F2A892A2808013A0319332A033A8B
:1004E8000319382A013A03193F2A073A0319462AF9
:1004F800013A03194D2A033A0319542A013A0319F8
:100508005B2A0F3A0319622A892A831603130F14E8
:100518000800831203138801071087101A3083120A
:100528000313AB00F730AA00AA0B982AAB0B982A42
:100538009D2A30300A128A1185230A128A1107303F
:1005480083120313AB007C30AA00AA0BA92AAB0BB9
:10055800A92A000030300A128A1185230A128A114A
:10056800413083120313AA00AA0BB82ABB2A3030E1
:100578000A128A1185230A128A1138300A128A113E
:1005880085230A128A110C300A128A1185230A124D
:100598008A1106300A128A1185230A128A11080064
:1005A80083120313AB00EA2A3F309F05002B1F0874
:1005B8003F3940389F00002B1F083F3980389F0083
:1005C800002B1F083F3980389F00002B2808A900FE
:1005D800AA012A08003A0319F22A002B2908013A2D
:1005E8000319D82A033A0319DB2A013A0319E02A26
:1005F800073A0319E52A002B2B08A900A90DA90D14
:100608001F082906C33929069F001F1483160313E0
:100618009F139F121F12831203139E018316031345
:100628009E01080083120313AB00322B2030831283
:100638000313AA00AA0B1E2B0000831203132B0816
:100648008400831300080A128A113B230A128A11B4
:10065800013083120313AA002A08AB072B08840071
:1006680083130008031D392B3A2B1A2B0800831219
:100678000313A900203083120313A800A80B422BF0
:10068800000083120313290888000714871002301A
:1006980083120313A800A80B4F2B00008312031327
:1006A8000715023083120313A800A80B592B00006A
:1006B8008312031307110800F401F501701C652B60
:1006C800662B6C2B7208F4070318F50A7308F507F4
:1006D80001300310F20DF30DFF3E031D6D2B0130A9
:1006E8000310F10CF00CFF3E031D742B700871040D
:1006F800031D7F2B802B622B7508F1007408F00016
:10070800080083120313A90029088800071087101E
:1007180007150C3083120313A800A80B912B0000B7
:100728008312031307110C3083120313A800A80BBC
:100738009B2B0000080083120313AB002B0803193E
:10074800A62BA72BAF2B2A08C03E0A128A11852395
:100758000A128A11B62B2A08803E0A128A118523AA
:100768000A128A11080064008001840A0406031929
:0607780000340406B82B5A
:04400E00D420FF3F7C
:00000001FF
