:020000040000FA
:060000000A128A110E280D
:10000800FE00030EF3000408F4000A08F5000A12C3
:100018008A1118280A128A111128F601F701F80125
:1000280083010A128A11D528831203130C1F1D2875
:100038001E2840281F0CF100710C0F39003A031DCF
:100048002628272830281E08F1007108F8001F0804
:10005800C33904389F003F281F0CF100710C0F3979
:10006800013A031D382839283F281E08F100710875
:10007800F700C3309F050C138C1D432844286E28B5
:100088000A128A1189210A128A11F1007108F600F0
:100098005B2878080A128A1199210A128A116B289A
:1000A80077080A128A1199210A128A116B28760890
:1000B800F100F2017208003A031963286B287108ED
:1000C800003A03194D28013A031954286B28831262
:1000D80003138C1175088A0074088400730E83005A
:1000E800FE0E7E0E090083120313A200AF288F3084
:1000F800831603138F05D128831603130F088F392E
:1001080010388F00D128831603130F088F39203831
:100118008F00D128831603130F088F3930388F00CA
:10012800D128831603130F088F3940388F00D12840
:10013800831603130F088F3950388F00D128831680
:1001480003130F088F3960388F00D1287030831659
:1001580003138F04D1282208A000A1012108003A26
:100168000319B728D1282008013A03197B28033A34
:1001780003198028013A03198728073A03198E289A
:10018800013A03199528033A03199C28013A0319DF
:10019800A3280F3A0319AA28D128831603130F148A
:1001A800080003308316031788008901033083167B
:1001B800031385000914831203138501860187013F
:1001C8008801890108300A128A1177200A128A11D7
:1001D800033083120313A4002408A00000300A127D
:1001E8008A1129210A128A11203083120313A400CC
:1001F800A40BFC280000831203139F14A001A10183
:10020800A20124300A128A116B210A128A110B17D3
:10021800831203138C11831603138C150C17831286
:1002280003130C138B179F181A291B291729203021
:1002380083120313A400A40B1F29000083120313C5
:100248009F1417290A128A110E2883120313A30078
:100258003F293F309F0555291F083F3940389F00E7
:1002680055291F083F3980389F0055291F083F39F5
:1002780080389F0055292008A100A2012208003AD1
:100288000319472955292108013A03192D29033A49
:1002980003193029013A03193529073A03193A296C
:1002A80055292308A100A10DA10D1F082106C33956
:1002B80021069F001F14831603139F139F121F12FA
:1002C800831203139E01831603139E0108008312F1
:1002D8000313A30083160313871283120313231D2A
:1002E800762977297D292208831603139400871518
:1002F800832920082204831603139400871183128C
:10030800031323082104940008000A128A11922179
:100318000A128A11831203131308080083160313A1
:10032800141C9729982992290800F0007008831254
:060338000313930008000E
:04400E00D420FF3F7C
:00000001FF
