:020000040000FA
:060000000A128A110C280F
:10000800FE00030EF1000A08F2000A128A111728EE
:100018000A128A110F28F701F801F901FA01830180
:100028000A128A11DB28831203138C1D1C281D2831
:100038006F281412141B212822282628941F2528EB
:1000480026282D281308F0007008F80014139413BC
:10005800141683160313941A322833284B281419BC
:10006800362837284B28831203131308F00070082A
:10007800F8008C11141683160313141C4428452801
:100088003F28A630F000F00B472800006C28941A8F
:100098004E284F286C28141D522853286C28831288
:1000A80003131308F0007008F800831603131410E4
:1000B8007A088312031393001416A630F000F00B8D
:1000C800632800008316031314186B286C2866280D
:1000D800831203138C110C1F7228732877281E08AB
:1000E800F0007008FA000C1372088A00710E830081
:1000F800FE0E7E0E0900F500B5288F308316031317
:100108008F05D728831603130F088F3910388F00EF
:10011800D728831603130F088F3920388F00D72864
:10012800831603130F088F3930388F00D7288316AA
:1001380003130F088F3940388F00D728831603130D
:100148000F088F3950388F00D728831603130F08EC
:100158008F3960388F00D7287030831603138F04C7
:10016800D7287508F300F4017408003A0319BD286C
:10017800D7287308013A03198128033A03198628F6
:10018800013A03198D28073A03199428013A0319EB
:100198009B28033A0319A228013A0319A9280F3A00
:1001A8000319B028D728831603130F140800013049
:1001B800831603178800890101308316031385000D
:1001C800860188018901831203138501860187014D
:1001D8008801890108300A128A117F200A128A11BF
:1001E800033083120313A0002008F30000300A1222
:1001F8008A112A210A128A11203083120313A000BF
:10020800A00B04290000831203139F14B0300A12B4
:100218008A1174210A128A110B17831603130C17FB
:10022800831203130C138B179F181B291C291829D9
:10023800203083120313A000A00B20290000831292
:1002480003139F1418290A128A110C28F60046294C
:100258003F30831203139F055C29831203131F0881
:100268003F3940389F005C29831203131F083F3928
:1002780080389F005C29831203131F083F39803898
:100288009F005C297308F400F5017508003A03190A
:100298004E295C297408013A03192C29033A0319D9
:1002A8003129013A03193829073A03193F295C29EA
:1002B8007608F400F40DF40D831203131F08740676
:1002C800C33974069F001F14831603139F139F12CC
:1002D8001F12831203139E01831603139E01080045
:1002E800F300730883160313930036308312031345
:1002F8009400803083160313940001309100871511
:1003080007168B170B17831203138C11831603130D
:040318008C15080038
:04400E00D420FF3F7C
:00000001FF
