:020000040000FA
:060000000A128A11F32F21
:10000800730872047104700403190B280C280E2855
:100018008030F306080083120313A101F81F152886
:1000280016281D28F709F809F70A0319F80AA10183
:10003800A10AFA1F202821282A28F909FA09F90A09
:100048000319FA0A0130FB007B08A106A201A301EB
:10005800770878040319312832286928A001A00AF2
:10006800402801300310F70DF80DFF3E031D362818
:100078000130FB007B08A007F81F432844283528D7
:1000880001300310A20DA30DFF3E031D452878087B
:100098007A02031D512877087902031C5428552831
:1000A8005C287708F9027808031CFA03FA0222147C
:1000B80001300310F80CF70CFF3E031D5D280130DA
:1000C800A002031D682869284428210803196D28FF
:1000D8006E287328A209A309A20A0319A30A2308F0
:1000E800F8002208F700080083160313C100A130A6
:1000F800A5002508AE00DC2F253044060319852805
:10010800862892284408A5004108840025088313FE
:1001180080000130A5002508C107DC2FB501B60114
:10012800B301B401200884000A168A1500200A12B7
:100138008A110A168A1546240A128A11031CA52850
:10014800A628E62883160313B501B6010A30F00085
:100158000030F100831603133608F3003508F20067
:100168000A168A15BF240A128A1171088316031306
:10017800B6007008B500200884000A168A15002009
:100188000A128A11D03EA500FF3003180030A600DD
:100198002508B5070318B60A2608B6070130A500D2
:1001A8002508A007200884000A168A1500200A12CC
:1001B8008A110A168A1546240A128A110318E52894
:1001C800E628AA2883160313200884000A168A152D
:1001D80000200A128A112E3A031DF328F42839291F
:1001E80034170130A5002508A007C201C30128293A
:1001F8000A30F0000030F100831603134308F300BF
:100208004208F2000A168A15BF240A128A117108D8
:1002180083160313C3007008C200200884000A165E
:100228008A1500200A128A11D03EA500FF30031853
:100238000030A6002508C2070318C30A2608C3070A
:100248000130A5002508A007200884000A168A1591
:1002580000200A128A110A168A1546240A128A11DF
:10026800031837293829FC283F29C201C30134164D
:100278003F2934155B29013083160313A007FF308B
:10028800200784000A168A1500200A128A11C40061
:10029800A500A6012608003A03195329DC2F2508D2
:1002A800003A0319EE2F663A03193D29DC2F003076
:1002B8003305A50007303405A600250826040319D0
:1002C80066296729192F341E6A296B296F29063078
:1002D800C2000030C3002E08840083130008BD004C
:1002E800840A0008BE00840A0008BF00840A0008C7
:1002F800C0000430A5002508AE074008F3003F08F9
:10030800F2003E08F1003D08F0000030F700003030
:10031800F6000030F5000030F4000A168A110A20B1
:100328000A128A11031899299A29B72983160313DF
:100338004008F3003F08F2003E08F1003D08F000D5
:100348000A128A1104200A128A11730883160313E9
:10035800C0007208BF007108BE007008BD000330FD
:10036800B3040030B40483160313BB01BC01400876
:10037800F3003F08F2003E08F1003D08F0000030AD
:10038800F7000030F6000030F5000030F4000A16DF
:100398008A1589250A128A110318D329D429C42A4F
:1003A8000310831603133F0D400D823EBB00FF3040
:1003B80003180030BC00FF30BB070318BC0AFF302D
:1003C800BC070330F0000030F1003C08F3003B08A4
:1003D800F2000A168A15BF240A128A1171088316B8
:1003E8000313BC007008BB000A30F7000030F800A7
:1003F8003C08FA003B08F9000A128A110F200A1279
:100408008A11780883160313BC007708BB00BC1F49
:100418000E2A0F2A152AFF30BB070318BC0AFF3023
:10042800BC073B03FF3A0A128A1540210A128A11B7
:1004380083120313410883160313BA0083120313AC
:10044800400883160313B900831203133F08831669
:100458000313B800831203133E0883160313B7006F
:10046800400883120313A700831603133F0883125F
:100478000313A600831603133E0883120313A50073
:10048800831603133D0883120313A4008316031372
:100498003A0883120313AB00831603133908831237
:1004A8000313AA0083160313380883120313A90041
:1004B80083160313370883120313A8000A128A1538
:1004C8009F240A128A118312031327088316031321
:1004D800BA0083120313260883160313B900831284
:1004E8000313250883160313B80083120313240883
:1004F80083160313B7003A08F3003908F2003808E6
:10050800F1003708F0003F30F7008030F600003087
:10051800F5000030F4000A168A110A200A128A111E
:100528000318972A982AA12AFF3083160313BB07BA
:100538000318BC0AFF30BC07C42A831603133A0801
:10054800F3003908F2003808F1003708F0004130AC
:10055800F7002030F6000030F5000030F4000A16ED
:100568008A110A200A128A11031CBB2ABC2AC42A2F
:10057800013083160313BB070318BC0A0030BC07FD
:10058800831603134308803AFF0080307F02031D5F
:10059800CF2A0D3042020318D22AD32A1A2B8316E7
:1005A800031342080A168A116D230A128A1183124C
:1005B80003134108D5004008D4003F08D3003E0883
:1005C800D20083160313400883120313D90083163D
:1005D80003133F0883120313D800831603133E083E
:1005E80083120313D700831603133D0883120313E2
:1005F800D6000A168A1178250A128A118312031363
:10060800550883160313C000831203135408831676
:100618000313BF0083120313530883160313BE008A
:1006280083120313520883160313BD0083160313A2
:100638003C08803AFF0080307F02031D252B0A30DA
:100648003B020318282B292B7A2B83160313400807
:10065800F3003F08F2003E08F1003D08F0000030CA
:10066800F7000030F6000030F5000030F4000A16FC
:100678008A1589250A128A110318432B442BEC2B5F
:1006880083160313400883120313D400831603133D
:100698003F0883120313D300831603133E08831203
:1006A8000313D200831603133D0883120313D100EA
:1006B8000A128A1506200A128A1183120313540893
:1006C800530452045104031D6A2B6B2BEC2B831625
:1006D80003133C08803AFF0080307F02031D762B0D
:1006E80002303B02031C792B7A2BEC2B8316031365
:1006F8003A08F3003908F2003808F1003708F0002A
:100708004030F7008930F6007030F5005F30F400B3
:100718000A168A110A200A128A110318942B952B9B
:100728009E2BF73083160313BB070318BC0AFF3050
:10073800BC07A62BF83083160313BB070318BC0AA3
:10074800FF30BC073B080A128A1540210A128A1199
:1007580083120313410883160313BA008312031389
:10076800400883160313B900831203133F08831646
:100778000313B800831203133E0883160313B7004C
:100788004008F3003F08F2003E08F1003D08F00081
:100798003A08F7003908F6003808F5003708F40079
:1007A8000A128A1582200A128A1173088316031303
:1007B800B2007208B1007108B0007008AF000030D4
:1007C800C0000030BF000030BE000030BD00702CFB
:1007D80083160313400883120313D40083160313EC
:1007E8003F0883120313D300831603133E088312B2
:1007F8000313D200831603133D0883120313D10099
:100808000A128A1506200A128A1183120313540841
:1008180083160313B20083120313530883160313BA
:10082800B10083120313520883160313B000831216
:100838000313510883160313AF003208F30031087D
:10084800F2003008F1002F08F00000300A168A156F
:1008580046270A128A11730883120313E9007208E3
:10086800E8007108E7007008E600831603134008E3
:1008780083120313ED00831603133F088312031337
:10088800EC00831603133E0883120313EB00831650
:1008980003133D0883120313EA000A168A159B24E2
:1008A8000A128A1183120313690883160313C000FE
:1008B80083120313680883160313BF0083120313FC
:1008C800670883160313BE00831203136608831692
:1008D8000313BD00BB01BC01C401C40A4408A50040
:1008E80001300310A50DFF3E031D752C0310250DC7
:1008F800693E84000A168A1500200A128A11A60089
:100908000A168A1500200A128A11A7000A168A15E3
:1009180000200A128A11A8000A168A1500200A1255
:100928008A11A90029083202031DA42C28083102C3
:10093800031DA42C27083002031DA42C26082F020F
:100948000318A72CA82CA92CB32C0130A500250826
:10095800C4070A304406031DB22CB32C722C440879
:100968004207A50043080318430AA6003B082507C9
:10097800A7003C0803183C0A2607A8002708B50268
:100988002808031CB603B602420843040319CD2CF9
:10099800CE2CD42CFF30B5070318B60AFF30B607A3
:1009A80003303305A50000303405A60025082604C9
:1009B8000319DF2CE02CF52CFF30B5070318B60A15
:1009C800FF30B607F52C203083160313A500410825
:1009D80084002508831380000130A5002508C1077D
:1009E800E02C3608803AFF0080307F02031DFE2C81
:1009F800013035020318012D022DE72C0330831630
:100A080003133305A50000303405A6002508260485
:100A180003190F2D102D822D2D30A50041088400BB
:100A28002508831380000130A5002508C107822D01
:100A38004408A50001300310A50DFF3E031D1F2D1E
:100A48000310250D693E84000A168A1500200A1233
:100A58008A11F0000A168A1500200A128A11F1007C
:100A68000A168A1500200A128A11F2000A168A1537
:100A780000200A128A11F3003208F7003108F60044
:100A88003008F5002F08F4000A168A15E0260A1225
:100A98008A11730883160313BA007208B900710823
:100AA800B8007008B7000030F3000030F2000030E2
:100AB800F1000A30F0003A08F7003908F600380863
:100AC800F5003708F4000A168A15D7250A128A1184
:100AD800730883160313BA007208B9007108B800C6
:100AE8007008B7003708303EA50041088400250883
:100AF800831380000130A5002508C1070130C40216
:100B0800440A031D882D892D1C2D9D2D30308316F8
:100B18000313A500410884002508831380000130D1
:100B2800A5002508C107FF30BB070318BC0AFF3022
:100B3800BC073C08803AFF0080307F02031DA62DC9
:100B480001303B020318A92DAA2D8A2D8316031301
:100B58004308803AFF0080307F02031DB52D09301D
:100B68004202031CB82DB92DC02D0830831603137B
:100B7800A5002508C400C62D831603134208A50046
:100B88002508C4004408A500A6012508C2022608B5
:100B9800031CC303C30244080319D32DD42DDF2D2E
:100BA8002E30A500410884002508831380000130F9
:100BB800A5002508C10744080A128A1540210A120F
:100BC8008A1183120313410883160313AD0083129D
:100BD8000313400883160313AC00831203133F0862
:100BE80083160313AB00831203133E088316031303
:100BF800AA002D0883120313AB00831603132C08D5
:100C080083120313AA00831603132B0883120313FA
:100C1800A900831603132A0883120313A800831656
:100C28000313400883120313A700831603133F0816
:100C380083120313A600831603133E0883120313BB
:100C4800A500831603133D0883120313A4000A1298
:100C58008A159F240A128A11831203132708D400C5
:100C68002608D3002508D2002408D1000A128A15C4
:100C780006200A128A1183120313540883160313D9
:100C8800B20083120313530883160313B1008312AF
:100C98000313520883160313B00083120313510879
:100CA80083160313AF00F92E4408A5000130031082
:100CB800A50DFF3E031D5B2E0310250D693E840024
:100CC8000A168A1500200A128A11F0000A168A15D7
:100CD80000200A128A11F1000A168A1500200A1249
:100CE8008A11F2000A168A1500200A128A11F300E6
:100CF8003208F7003108F6003008F5002F08F40034
:100D08000A168A15E0260A128A1173088316031335
:100D1800BA007208B9007108B8007008B70000304E
:100D2800F3000030F2000030F1000A30F0003A0819
:100D3800F7003908F6003808F5003708F4000A16F5
:100D48008A15D7250A128A11730883160313BA0065
:100D58007208B9007108B8007008B7003708303E4B
:100D6800A500410884002508831380000130A500F0
:100D78002508C1074408A50001300310A50DFF3E52
:100D8800031DC12E0310250D693E84000A168A151D
:100D980000200A128A11F0000A168A1500200A1289
:100DA8008A11F1000A168A1500200A128A11F20027
:100DB8000A168A1500200A128A11F3003208F70071
:100DC8003108F6003008F5002F08F4000A168A15D5
:100DD800D7250A128A11730883160313B200720802
:100DE800B1007108B0007008AF000130C402440AB5
:100DF800031DFF2E002F582E122F3030A50041085A
:100E080084002508831380000130A5002508C10748
:100E1800FF30C2070318C30AFF30C3074208430460
:100E2800031D172F182F012FDC2F42084304031D21
:100E38001E2F1F2F2D2F3208310430042F04031DBD
:100E4800262F272F2D2F0130C2070318C30A003081
:100E5800C3074308803A803C031D342F42084402EC
:100E68000318372F382F3F2F831603134208A50086
:100E78002508C400572F831603134308803AA5009A
:100E880080302502031D4A2F4408420203184D2FC3
:100E98004E2F572F831603134408A500A6012508D3
:100EA800C2002608C3008316031335083604031945
:100EB8005E2F5F2F712F03303305A50000303405F6
:100EC800A6002508260403196A2F6B2F712FFF30FF
:100ED800B5070318B60AFF30B607341F742F752FED
:100EE800902F4308803AA5003608803A2502031D52
:100EF8007F2F350842020318822F832F8C2F8316E9
:100F080003134208B5024308031CB603B602902F28
:100F180083160313B501B6013608803A803C031DD9
:100F2800972F3508440203189A2F9B2FA72F831653
:100F380003134408A500A6012508B5022608031CCA
:100F4800B603B602AB2F83160313B501B6013508F5
:100F580036040319B02FB12FC82F2030A50041083F
:100F680084002508831380000130A5002508C107E7
:100F7800FF30B5070318B60AFF30B6073508360440
:100F8800031DC72FC82FB12F03303305A50000302C
:100F98003405A600250826040319D32FD42FDC2FE7
:100FA8002D30A500410884002508831380008D2872
:100FB8000130A007FF30200784000A168A15002098
:100FC8000A128A11A5002508C4004408031DED2F44
:100FD800EE2F8028410884008313800108008313C2
:100FE800C9308400DB300A168A153E240A128A1199
:100FF80083010A168A116929F00070088312031305
:1010080093000800031083120313530D540DD500E9
:101018005508DB005B08031D122813281C28003024
:10102800D4000030D3000030D2000030D100812835
:101038005108D5005208D6005308D7005408D800E4
:101048001F300310D80CD70CD60CD50CFF3E031D4F
:1010580025285508D9005908DA00D317FF30D105DB
:10106800FF30D205FF30D3050030D4059630DB02BF
:10107800DB1F3F2840285A285B08803A973E031810
:10108800462847284828132801300310D40CD30CCD
:10109800D20CD10CFF3E031D49280130D50055085C
:1010A800DB07031D582859284828712820305B027F
:1010B800031C5F2860286C2813280130D500031012
:1010C800D10DD20DD30DD40DD50B63280130DB0221
:1010D8005B08031D7028712861285A0803197528B0
:1010E80076288128D109D209D309D409D10A03194C
:1010F800D20A0319D30A0319D40A08000310720D7F
:10110800730DF800780883120313A5002508031D42
:101118008E288F2898280030F3000030F200003025
:10112800F1000030F0003F290310760D770DF8002C
:101138007808A4002408031DA228A328A4288F281F
:10114800F217FF30F005FF30F105FF30F2050030EF
:10115800F305F617FF30F405FF30F505FF30F60507
:101168000030F7050030A3000030A2000030A100D5
:101178000030A0007F30A502A0302407F8007808CE
:10118800A5022030F8007808A4000130F800031008
:10119800A00DA10DA20DA30DF80BCB2877087302A3
:1011A800031DE02876087202031DE0287508710205
:1011B800031DE02874087002031CE328E428F328C0
:1011C8007408F0027508031C750FF1027608031CF9
:1011D800760FF2027708031C770FF3022014013010
:1011E800F8000310F00DF10DF20DF30DF80BF528D2
:1011F8000130A402031D01290229C928A51F0529B8
:10120800062920292508803A9F3E03180C290D2914
:101218000E298F2801300310A30CA20CA10CA00CDE
:10122800FF3E031D0F290130F8007808A507031DAC
:101238001E291F290E29372920302502031C25299C
:10124800262932298F280130F8000310A00DA10D9E
:10125800A20DA30DF80B29290130A5022508031DAD
:101268003629372927292308F3002208F200210804
:10127800F1002008F000080083120313D000D01FEB
:1012880046294729F42AD009D00A5008803A123E44
:10129800031C4F295029382A0A30F7000030F8007B
:1012A8005008F200F301F21BF3036430F000003041
:1012B800F1000A168A152B260A128A157108FA00F7
:1012C8007008F9000A128A110F200A128A15770885
:1012D80083120313C20001300310C20DFF3E031D29
:1012E80070290310420D593E84000A168A15002001
:1012F8000A128A15C3000A168A1500200A128A15CE
:10130800C4000A168A1500200A128A15C5000A1692
:101318008A1500200A128A15C6004608A700450843
:10132800A6004408A5004308A4006430F700003074
:10133800F8005008F900FA01F91BFA030A128A1199
:101348000F200A128A15770883120313C700013089
:101358000310C70DFF3E031DAC290310470D7D3E4A
:1013680084000A168A1500200A128A15C8000A166F
:101378008A1500200A128A15C9000A168A15002043
:101388000A128A15CA000A168A1500200A128A1536
:10139800CB004B08AB004A08AA004908A900480836
:1013A800A8000A128A159F240A128A1583120313A9
:1013B8002708CF002608CE002508CD002408CC0039
:1013C8000A30F0000030F1005008F200F301F21B7F
:1013D800F3030A168A152B260A128A157008831237
:1013E8000313C20001300310C20DFF3E031DF7298D
:1013F8000310420D353E84000A168A1500200A1291
:101408008A15C3000A168A1500200A128A15C40014
:101418000A168A1500200A128A15C5000A168A15A6
:1014280000200A128A15C6004608A7004508A6002B
:101438004408A5004308A4004F08AB004E08AA00C2
:101448004D08A9004C08A8000A128A159F240A1200
:101458008A15831203132708C1002608C00025082F
:10146800BF002408BE009E2C5008803A753E031C1D
:101478003E2A3F2AC72A0A30F0000030F1005008FF
:10148800F200F301F21BF3030A168A152B260A123F
:101498008A15700883120313C20001300310C20DAD
:1014A800FF3E031D522A0310420D353E84000A16E2
:1014B8008A1500200A128A15C3000A168A15002008
:1014C8000A128A15C4000A168A1500200A128A15FB
:1014D800C5000A168A1500200A128A15C600460891
:1014E800A7004508A6004408A5004308A4000A3040
:1014F800F7000030F8005008F900FA01F91BFA0368
:101508000A128A110F200A128A1577088312031308
:10151800C70001300310C70DFF3E031D8E2A0310BC
:10152800470D593E84000A168A1500200A128A15AA
:10153800C8000A168A1500200A128A15C9000A1658
:101548008A1500200A128A15CA000A168A15002070
:101558000A128A15CB004B08AB004A08AA004908B2
:10156800A9004808A8000A128A159F240A128A1599
:10157800831203132708C1002608C0002508BF00EE
:101588002408BE009E2C5008C20001300310C20D72
:10159800FF3E031DCA2A0310420D353E84000A1679
:1015A8008A1500200A128A15C3000A168A15002017
:1015B8000A128A15C4000A168A1500200A128A150A
:1015C800C5000A168A1500200A128A15C6004608A0
:1015D800C1004508C0004408BF004308BE009E2C57
:1015E8005008803A123E031CFA2AFB2AE32B0A30E1
:1015F800F7000030F8005008F200F301F21BF30383
:101608006430F0000030F1000A168A152B260A1201
:101618008A157108FA007008F9000A128A110F2059
:101628000A128A15770883120313C20001300310C7
:10163800C20DFF3E031D1B2B0310420D253E8400E7
:101648000A168A1500200A128A15C3000A168A1576
:1016580000200A128A15C4000A168A1500200A12E8
:101668008A15C5000A168A1500200A128A15C600AE
:101678004608A7004508A6004408A5004308A4009A
:101688006430F7000030F8005008F900FA01F91B3F
:10169800FA030A128A110F200A128A157708831290
:1016A8000313C70001300310C70DFF3E031D572B5E
:1016B8000310470D493E84000A168A1500200A12B5
:1016C8008A15C8000A168A1500200A128A15C90048
:1016D8000A168A1500200A128A15CA000A168A15DF
:1016E80000200A128A15CB004B08AB004A08AA0052
:1016F8004908A9004808A8000A128A159F240A1256
:101708008A15831203132708CF002608CE00250860
:10171800CD002408CC000A30F0000030F100500859
:10172800F200F301F21BF3030A168A152B260A129C
:101738008A15700883120313C20001300310C20D0A
:10174800FF3E031DA22B0310420D013E84000A1622
:101758008A1500200A128A15C3000A168A15002065
:101768000A128A15C4000A168A1500200A128A1558
:10177800C5000A168A1500200A128A15C6004608EE
:10178800A7004508A6004408A5004308A4004F0880
:10179800AB004E08AA004D08A9004C08A8000A1280
:1017A8008A159F240A128A15831203132708C10079
:1017B8002608C0002508BF002408BE009E2C50083B
:1017C800803A753E031CE92BEA2B722C0A30F00094
:1017D8000030F1005008F200F301F21BF3030A167F
:1017E8008A152B260A128A15700883120313C20061
:1017F80001300310C20DFF3E031DFD2B0310420DE7
:10180800013E84000A168A1500200A128A15C300B0
:101818000A168A1500200A128A15C4000A168A15A3
:1018280000200A128A15C5000A168A1500200A1215
:101838008A15C6004608A7004508A6004408A50062
:101848004308A4000A30F7000030F8005008F900F7
:10185800FA01F91BFA030A128A110F200A128A15D3
:10186800770883120313C70001300310C70DFF3E2A
:10187800031D392C0310470D253E84000A168A15CE
:1018880000200A128A15C8000A168A1500200A12B2
:101898008A15C9000A168A1500200A128A15CA0074
:1018A8000A168A1500200A128A15CB004B08AB00CD
:1018B8004A08AA004908A9004808A8000A128A1577
:1018C8009F240A128A15831203132708C1002608C9
:1018D800C0002508BF002408BE009E2C5008C20086
:1018E80001300310C20DFF3E031D752C0310420D7D
:1018F800013E84000A168A1500200A128A15C300C0
:101908000A168A1500200A128A15C4000A168A15B2
:1019180000200A128A15C5000A168A1500200A1224
:101928008A15C6004608C1004508C0004408BF0023
:101938004308BE0008008312031327088039AC004F
:101948002C08B1002708AC002C07AD002D08B70003
:10195800A61FAF2CB02CB12C371437080319B52C9F
:10196800B62CC52C370A031DBA2CBB2CC32C00304F
:10197800A7000030A6000030A5000030A400A6177C
:10198800CD2C0030A7000030A6000030A5000030A4
:10199800A4002B088039AC002C08B1062B08AC0039
:1019A8002C07AD002D08B600AA1FDB2CDC2CDD2C83
:1019B800361436080319E12CE22CF12C360A031DE3
:1019C800E62CE72CEF2C0030AB000030AA000030EA
:1019D800A9000030A800AA17F92C0030AB0000308D
:1019E800AA000030A9000030A80036080319FD2C11
:1019F800FE2C032D3708031D022D032D0C2D00305E
:101A0800A7000030A6000030A5000030A400FF2F7A
:101A18002408AC002C08F0002A080A168A15E424C9
:101A28000A128A15710883120313BD007008BC00DE
:101A38003C08AC00AD01AE01AF012F08B5002E087F
:101A4800B4002D08B3002C08B2003D08AC00AD016D
:101A5800AE01AF012F08BB002E08BA002D08B9004F
:101A68002C08B8002508AC002C08F00029080A1634
:101A78008A15E4240A128A15710883120313BD001B
:101A88007008BC003C08AC00AD01AE01AF012C08E9
:101A9800B2072D0803110318013E0319542DB3078B
:101AA8002E0803110318013E03195B2DB4072F08F4
:101AB80003110318013E0319622DB5073D08AC0058
:101AC800AD01AE01AF012C08B8072D0803110318AA
:101AD800013E0319702DB9072E0803110318013EA2
:101AE8000319772DBA072F0803110318013E0319AC
:101AF8007E2DBB072608AC002C08F00028080A1623
:101B08008A15E4240A128A15710883120313BD008A
:101B18007008BC003C08AC00AD01AE01AF012C0858
:101B2800B2072D0803110318013E03199C2DB307B2
:101B38002E0803110318013E0319A32DB4072F081B
:101B480003110318013E0319AA2DB5073D08AC007F
:101B5800AD01AE01AF012C08B8072D080311031819
:101B6800013E0319B82DB9072E0803110318013EC9
:101B78000319BF2DBA072F0803110318013E0319D3
:101B8800C62DBB070830AC000310B20DB30DB40D61
:101B9800B50DAC0BC82D2508AC002C08F0002808A2
:101BA8000A168A15E4240A128A1571088312031387
:101BB800BD007008BC003C08AC003D08AD00AE019B
:101BC800AF012C08B2072D0803110318013E0319B1
:101BD800EE2DB3072E0803110318013E0319F52D46
:101BE800B4072F0803110318013E0319FC2DB5078C
:101BF8002408AC002C08F00029080A168A15E424E9
:101C08000A128A15710883120313BD007008BC00FC
:101C18003C08AC003D08AD00AE01AF012C08B2078E
:101C28002D0803110318013E03191B2EB3072E08B4
:101C380003110318013E0319222EB4072F080311BC
:101C48000318013E0319292EB5070830AC0003100C
:101C5800B20DB30DB40DB50DAC0B2B2E2408AC0092
:101C68002C08F00028080A168A15E4240A128A1596
:101C7800710883120313BD007008BC003C08AC0057
:101C88003D08AD00AE01AF012C08B2072D080311C5
:101C98000318013E0319512EB3072E080311031828
:101CA800013E0319582EB4072F0803110318013EEB
:101CB80003195F2EB5072508AC002C08F0002A0888
:101CC8000A168A15E4240A128A1571088312031366
:101CD800BD007008BC003C08AC003D08AD00AE017A
:101CE800AF012C08B8072D0803110318013E03198A
:101CF8007E2EB9072E0803110318013E0319852EFD
:101D0800BA072F0803110318013E03198C2EBB07CD
:101D18002608AC002C08F00029080A168A15E424C5
:101D28000A128A15710883120313BD007008BC00DB
:101D38003C08AC003D08AD00AE01AF012C08B80767
:101D48002D0803110318013E0319AB2EB9072E08FD
:101D580003110318013E0319B22EBA072F08031105
:101D68000318013E0319B92EBB072608AC002C083E
:101D7800F0002A080A168A15E4240A128A1571083E
:101D880083120313BD007008BC003C08AC003D087A
:101D9800AD00AE01AF0108300310AC0DAD0DAE0DB6
:101DA800AF0DFF3E031DD02E2C08B8072D080311D8
:101DB8000318013E0319E12EB9072E080311031871
:101DC800013E0319E82EBA072F0803110318013E34
:101DD8000319EF2EBB073208AC003308AD003408F6
:101DE800AE003508AF0018300310AF0CAE0CAD0CC8
:101DF800AC0CFF3E031DF82E2C08B8072D08031164
:101E08000318013E0319092FB9072E0803110318F7
:101E1800013E0319102FBA072F0803110318013EBA
:101E28000319172FBB070830AC000310B20DB30D10
:101E3800B40DB50DAC0B192F37083607AC00AD0142
:101E4800AD0D2C08823EBC002D080318013EFF3E54
:101E5800BD004B2F0130AC000310B80DB90DBA0D01
:101E6800BB0DAC0B302FB51F3A2F3B2F3C2F38142E
:101E78000130AC000310B20DB30DB40DB50DAC0BB1
:101E88003E2FFF30BC070318BD0AFF30BD07BA1F3D
:101E98004E2F4F2F2E2FB601B51F532F542F702FB3
:101EA800FF303205AC00FF303305AD00FF3034059C
:101EB800AE007F303505AF002F082E042D042C040A
:101EC8000319672F682F6B2FB601B60A702F381CBD
:101ED8006E2F6F2F702F682F36080319742F752FE8
:101EE800A62F0130B807003003180130B9070030B9
:101EF80003180130BA07003003180130BB073B1C38
:101F0800862F872FA62F3808AC003908AD003A086D
:101F1800AE003B08AF000130B0002F0DAF0CAE0C87
:101F2800AD0CAC0CB00B912F2F08BB002E08BA00DB
:101F38002D08B9002C08B8000130BC070318BD0AE9
:101F48000030BD073D08803AFF0080307F02031D46
:101F5800AF2FFF303C02031CB22FB32FBE2F7F30B0
:101F680083120313BB008030BA000030B900003080
:101F7800B800F32F831203133D08803AFF00803026
:101F88007F02031DC92F01303C020318CC2FCD2F2F
:101F9800D92F003083120313BB000030BA00003081
:101FA800B9000030B800B101F32F831203133C08C5
:101FB800AC002C08B700FF30B805FF30B9057F30FA
:101FC800BA050030BB05371CEA2FEB2FEC2FBA17E8
:101FD8003708AC0003102C0CAD002D08BB003108ED
:101FE800AC002C08BB043B08A7003A08A600390837
:081FF800A5003808A400080050
:102002000A168A1537240A168A1183120313130833
:10201200080000307005F80000307105F9008030CA
:102022007205FA007F307305FB007B087A0479049D
:102032007804031D1D281E2826280030F3000030D6
:10204200F2000030F1000030F00000307405F800BA
:1020520000307505F90080307605FA007F3077058B
:10206200FB007B087A0479047804031D39283A2896
:1020720042280030F7000030F6000030F500003052
:10208200F400F31F452846286A280030F800003083
:10209200F9000030FA008030FB007008F802710885
:1020A200031C710F55285628F9027208031C720F7F
:1020B2005B285C28FA027308031C730F61286228EC
:1020C200FB027B08F3007A08F2007908F100780835
:1020D200F000F71F6D286E2892280030F8000030BB
:1020E200F9000030FA008030FB007408F80275082D
:1020F200031C750F7D287E28F9027608031C760FD3
:1021020083288428FA027708031C770F89288A28F3
:10211200FB027B08F7007A08F6007908F5007808D8
:10212200F4008030F3068030F70677087302031D4F
:10213200A42876087202031DA42875087102031DE3
:10214200A428740870020318A728A828AA28031034
:10215200AB28031408007008F8007108F90072082F
:10216200FA000310790D7A0DFB007B08831203132A
:10217200A5002508031DBE28BF28C8280030F3008B
:102182000030F2000030F1000030F00068297408DD
:10219200F8007508F9007608FA000310790D7A0D37
:1021A200FB007B08A4002408031DD828D928DA28BC
:1021B200BF28F117FF30F005FF30F1050030F205BE
:1021C200F517FF30F405FF30F5050030F605003055
:1021D200A3000030A2000030A1000030A0007F3038
:1021E200A50298302407F8007808A5021830F800F4
:1021F2007808A4000130F8000310A00DA10DA20D73
:10220200A30DF80BFD2876087202031D0E2975082E
:102212007102031D0E2974087002031C1129122970
:102222001D297408F0027508031C750FF102760867
:10223200031C760AF202201401300310F00DF10D96
:10224200F20DFF3E031D1E290130A402031D2A299F
:102252002B29FB28A51F2E292F2949292508803A39
:10226200973E0318352936293729BF280130031034
:10227200A30CA20CA10CA00CFF3E031D38290130B7
:10228200F8007808A507031D47294829372960293E
:1022920018302502031C4E294F295B29BF28013023
:1022A200F8000310A00DA10DA20DA30DF80B5229E9
:1022B2000130A5022508031D5F2960295029230842
:1022C200F3002208F2002108F1002008F0000800C3
:1022D20083160317880189018316031309108601E7
:1022E20088018312031386018801091408300A1633
:1022F2008A1584260A168A11F001F101F2012030B2
:102302000A168A156C240A168A110A168A15582486
:102312000A168A118B170B17831603138C16831256
:1023220003138C1283128C1E9729982993291A0859
:1023320086004C2B831203130910033083160313F8
:10234200C6009730C500C50BA429C60BA429831665
:10235200031352080A128A1500200A168A113C3009
:1023620083120313A700A030A600A530A5002730D2
:10237200A4000A168A1101200A168A118316031371
:10238200C500C601C701C8014808F3004708F200AA
:102392004608F1004508F00001300A168A15462762
:1023A2000A168A11730883120313AB007208AA007B
:1023B2007108A9007008A8000A128A159F240A163B
:1023C2008A1183120313270883160313D000831282
:1023D2000313260883160313CF0083120313250861
:1023E20083160313CE0083120313240883160313E8
:1023F200CD00033083160313C6009730C500C50B0A
:10240200002AC60B002A8312031309140330831611
:102412000313C7008A30C6005530C500C50B0F2A0A
:10242200C60B0F2AC70B0F2A913083160313C50060
:102432004508A0005008A4004F08A3004E08A200BF
:102442004D08A100D7300A128A1178200A168A1183
:1024520083160313D101522A023083160313C700D5
:102462000430C600B930C500C50B352AC60B352A63
:10247200C70B352A3C2A831203130C1E412A422A17
:102482004C2A831603135108D73E84008313000895
:10249200831203139900013083160313C500450804
:1024A200D1075108C500C601D7300A168A15822401
:1024B2000A168A118316031346087102031D632A42
:1024C200450870020318662A672A2D2A0D308312E6
:1024D20003139900023083160313C7000430C600A9
:1024E200B930C500C50B732AC60B732AC70B732AF2
:1024F2007A2A0D308312031399005E2B8312031381
:102502000910033083160313C6009730C500C50BAC
:10251200882AC60B882A8316031352080A128A15C0
:1025220000200A168A113C3083120313A700A03040
:10253200A600A530A5002730A4000A168A110120A2
:102542000A168A1183160313C500C601C701C80102
:102552004808F3004708F2004608F1004508F00079
:1025620001300A168A1546270A168A117308831241
:102572000313AB007208AA007108A9007008A80032
:102582000A128A159F240A168A1183120313270836
:1025920083160313CC008312031326088316031336
:1025A200CB0083120313250883160313CA00831278
:1025B2000313240883160313C9000330831603137D
:1025C200C6009730C500C50BE42AC60BE42A831265
:1025D20003130914033083160313C7008A30C6009D
:1025E2005530C500C50BF32AC60BF32AC70BF32AD5
:1025F200913083160313C5004508A0004C08A400BF
:102602004B08A3004A08A2004908A100D3300A12CD
:102612008A1178200A168A1183160313D101362BE8
:10262200023083160313C7000430C600B930C50058
:10263200C50B192BC60B192BC70B192B202B831279
:1026420003130C1E252B262B302B83160313510844
:10265200D33E8400831300088312031399000130D0
:1026620083160313C5004508D1075108C500C601EA
:10267200D3300A168A1582240A168A118316031386
:1026820046087102031D472B4508700203184A2BA6
:102692004B2B112B672A831603135208C500C60160
:1026A2004608003A0319562B5E2B4508003A0319D7
:1026B2009B29013A03197F2A5E2B831603135208C2
:1026C200031D642B652B682BD201D20A9329D201F8
:1026D20093290A128A11002883120313D1006E3043
:1026E2005102031C752B762B832C3F30A700003040
:1026F200A6000030A5000030A4006430F6000030CF
:10270200F7005108C200C3014208F8004308F9006B
:102712000A168A1545250A168A11760883120313AA
:10272200C40001300310C40DFF3E031D932B0310A0
:10273200440D7D3E84000A168A1500200A168A116D
:10274200C5000A168A1500200A168A11C6000A1642
:102752008A1500200A168A11C7000A168A15002057
:102762000A168A11C8004808AB004708AA004608A2
:10277200A9004508A8000A128A159F240A168A1180
:10278200831203132708D0002608CF002508CE00A5
:102792002408CD000A30F6000030F7005108C200CC
:1027A200C3014208F2004308F3006430F000003035
:1027B200F1000A168A150B250A168A117108F9000A
:1027C2007008F8000A168A1545250A168A11760835
:1027D20083120313C40001300310C40DFF3E031D16
:1027E200ED2B0310440D593E84000A168A15002071
:1027F2000A168A11C5000A168A1500200A168A11BD
:10280200C6000A168A1500200A168A11C7000A167F
:102812008A1500200A168A11C8004808A70047082E
:10282200A6004608A5004508A4005008AB004F08C2
:10283200AA004E08A9004D08A8000A128A159F2472
:102842000A168A11831203132708CC002608CB002C
:102852002508CA002408C9000A30F0000030F1003F
:102862005108C200C3014208F2004308F3000A16ED
:102872008A150B250A168A11700883120313C400E5
:1028820001300310C40DFF3E031D422C0310440D02
:10289200353E84000A168A1500200A168A11C500E0
:1028A2000A168A1500200A168A11C6000A168A1507
:1028B20000200A168A11C7000A168A1500200A1675
:1028C2008A11C8004808A7004708A6004608A500C4
:1028D2004508A4004C08AB004B08AA004A08A9000E
:1028E2004908A8000A128A159F240A168A1183121F
:1028F20003132708C1002608C0002508BF002408CA
:10290200BE00772D0B305102031C882C892C342DEC
:102912003F30A7000030A6000030A5000030A40020
:102922000A30F6000030F7005108C200C301420825
:10293200F8004308F9000A168A1545250A168A1175
:10294200760883120313C40001300310C40DFF3E46
:10295200031DA62C0310440D593E84000A168A1545
:1029620000200A168A11C5000A168A1500200A16C6
:102972008A11C6000A168A1500200A168A11C70093
:102982000A168A1500200A168A11C8004808AB00E8
:102992004708AA004608A9004508A8000A128A1595
:1029A2009F240A168A11831203132708D0002608CF
:1029B200CF002508CE002408CD000A30F0000030F8
:1029C200F1005108C200C3014208F2004308F300BB
:1029D2000A168A150B250A168A1170088312031328
:1029E200C40001300310C40DFF3E031DF32C03107D
:1029F200440D353E84000A168A1500200A168A11F3
:102A0200C5000A168A1500200A168A11C6000A167F
:102A12008A1500200A168A11C7000A168A15002094
:102A22000A168A11C8004808A7004708A6004608E7
:102A3200A5004508A4005008AB004F08AA004E08A4
:102A4200A9004D08A8000A128A159F240A168A11A5
:102A5200831203132708C1002608C0002508BF00FF
:102A62002408BE00772D3F30A7000030A6000030BA
:102A7200A5000030A4005108C20001300310C20DAD
:102A8200FF3E031D3F2D0310420D353E84000A1602
:102A92008A1500200A168A11C3000A168A15002018
:102AA2000A168A11C4000A168A1500200A168A110B
:102AB200C5000A168A1500200A168A11C6004608A1
:102AC200AB004508AA004408A9004308A8000A125E
:102AD2008A159F240A168A11831203132708C1003C
:102AE2002608C0002508BF002408BE000800831283
:102AF200031355088039DA005A08E2005508DA0053
:102B02005A07DB005B08E400D41F882D892D8A2D2B
:102B12006414640803198E2D8F2D9F2D640A031DE2
:102B2200932D942D9C2D0030D5000030D400003020
:102B3200D3000030D200D417D501A72D0030D50024
:102B42000030D4000030D3000030D2005908803960
:102B5200DA005A08E300630862060319B12DB22DA8
:102B6200B32D62175908DA005A07DB005B08E3004D
:102B7200D81FBC2DBD2DBE2D631463080319C22DB1
:102B8200C32DD32D630A031DC72DC82DD02D0030B0
:102B9200D9000030D8000030D7000030D600D81756
:102BA200D901DB2D0030D9000030D8000030D70029
:102BB2000030D600640863020318E02DE12D252EB3
:102BC200621FE42DE52DE92D8030DA005A08E20675
:102BD2006408DA005A08E5006308DA005A08E400DB
:102BE2006508DA005A08E3005208DA005A08E500DC
:102BF2005608DA005A08D2006508DA005A08D600E8
:102C02005308DA005A08E5005708DA005A08D300D8
:102C12006508DA005A08D7005408DA005A08E500B5
:102C22005808DA005A08D4006508DA005A08D800B1
:102C32005508DA005A08E5005908DA005A08D500A2
:102C42006508DA005A08D900E5016308DA00DB01F9
:102C52005B08DD0064085A02DC00031CDD035D082A
:102C6200803AFF0080307F02031D392E1A305C0249
:102C7200031C3C2E3D2E7A2E831203135508540456
:102C820053045204031D462E482E0130492E0030B3
:102C9200DA005A08E5000030D5000030D4000030D8
:102CA200D3000030D2006308DA005A08E400822E12
:102CB200651C5C2E5D2E662E6508DA0003105A0C28
:102CC2000138DB005B08E500682E0310E50C521C9E
:102CD2006B2E6C2E6D2EE5170130DA00550DD50CDA
:102CE200D40CD30CD20CDA0B6F2E0130DA005A0856
:102CF200E4078312031363086402031C812E822EED
:102D0200592E621B852E862ED12E6408031D8A2E13
:102D12008B2E942E0030D5000030D4000030D3002A
:102D22000030D200FF2F5608D207570803110318AC
:102D3200013E03199D2ED307580803110318013EC3
:102D42000319A42ED407590803110318013E0319CD
:102D5200AB2ED507551CAE2EAF2E852F651CB22E7D
:102D6200B32EBC2E6508DA0003105A0C0138DB00C2
:102D72005B08E500BE2E0310E50C521CC12EC22ECC
:102D8200C32EE5170130DA00550DD50CD40CD30C47
:102D9200D20CDA0BC52E0130DA005A08E407852F6F
:102DA2005508803AFF005908803A7F02031DE32E3E
:102DB20058085402031DE32E57085302031DE32E45
:102DC200560852020318E62EE72E3F2FFF30DA0094
:102DD200FF30DB00FF30DC00FF30DD005608DE0094
:102DE2005708DF005808E0005908E1005208DE02E7
:102DF2005308031C530FFE2EFF2EDF025408031C40
:102E0200540F042F052FE0025508031C550F0A2FFB
:102E12000B2FE1025E08DA075F0803185F0F122F1B
:102E2200132FDB0760080318600F182F192FDC0718
:102E320061080318610ADD075D08D5005C08D4004B
:102E42005B08D3005A08D2008030DA005A08E20642
:102E5200E509E50A6508031D2F2F302F4D2F01309C
:102E6200D207003003180130D307003003180130B5
:102E7200D407003003180130D5074D2F5608D2026F
:102E82005708031C570FD3025808031C580FD402CB
:102E92005908031C590FD50255085404530452040F
:102EA200031D542F552F812F6508031D592F5A2FAB
:102EB200812F0030D5000030D4000030D300003024
:102EC200D200FF2F0130DA000310D20DD30DD40D42
:102ED200D50DDA0B652FE51F6F2F702F712F52144E
:102EE200651C742F752F782F0314E50D7A2F0310AC
:102EF200E50D640803197E2F7F2F812F0130E40234
:102F0200D41F842F852F632FE301E51F892F8A2F7A
:102F1200982F65087F3903198F2F902F932FE30184
:102F2200E30A982F521C962F972F982F902F630801
:102F320003199C2F9D2FD12F0130D2070030031887
:102F42000130D307003003180130D40700300318D2
:102F52000130D507551CAE2FAF2FD12F5208DA0002
:102F62005308DB005408DC005508DD000130DE00A8
:102F72005D0DDD0CDC0CDB0CDA0CDE0BB92F5D0811
:102F8200D5005C08D4005B08D3005A08D200640A5A
:102F92000319CC2FCD2FD12F0130DA005A08E407C4
:102FA200640A0319D52FD62FDB2F6408031DDA2FED
:102FB200DB2FE92F0030D5000030D4000030D300E1
:102FC2000030D2006408031DE72FE82FE92FE20149
:102FD200641CEC2FED2FEF2FD417F32F7F30DA0084
:102FE2005A08D4056408DA0003105A0CDB005B08A7
:102FF200D500E21FFD2FFE2FFF2FD5170800183036
:103002008A000408840A82070034003400348034C1
:103012003F34003400342034413400340034C834A6
:103022004234003400347A344434003440341C34A2
:10303200463400345034C3344734003424347434B6
:1030420049348034963418344B342034BC34BE3482
:103052004C3428346B346E344E34F9340234153423
:103062005034EC347834AD346034CA34F2344934F8
:1030720071340034003480343F34CD34CC34CC3419
:103082003D340A34D73423343C346F34123483341D
:103092003A341734B734D1343834AC34C5342734E5
:1030A2003734BD343734863435349534BF34D6346E
:1030B20033347734CC342B3432345F347034893443
:1030C2003034FF34E634DB342E340834E5343C3417
:1030D2001E3460344234A2340D34013400340034DE
:1030E20000340A34003400340034643400340034D0
:1030F2000034E8340334003400341034273400340C
:103102000034A034863401340034403442340F3465
:10311200003480349634983400340034E134F53489
:1031220005340034CA349A343B34253433342E34D3
:0631320032346634003463
:10386E0083160313141C3C2C3D2C372C08006400CB
:10387E008001840A04060319003404063F2CF1006B
:10388E00F0013A30710203184D2C4E2C562C30306C
:10389E007102031C532C542C562CF001F00A700CA0
:1038AE00080083160313181398161812181583128E
:1038BE000313981718131816831603178715CF308E
:1038CE008316031399009A010800F300831603135D
:1038DE008712731D732C742C782C72089400871524
:1038EE007C2C700872049400871173087104831283
:1038FE00031394000800F4007408F2007208F30039
:10390E008C2C0130F2007208F307730884008313C5
:10391E000008031D932C942C882C74087302F0005D
:10392E00F101F01BF1030800803083120313E90646
:10393E006D08D5006C08D4006B08D3006A08D2005D
:10394E006908D9006808D8006708D7006608D6004D
:10395E000A168A1178250A168A158312031355083A
:10396E00E9005408E8005308E7005208E600080092
:10397E00F401F501701CC42CC52CCB2C7208F40775
:10398E000318F50A7308F50701300310F20DF30D55
:10399E00FF3E031DCC2C01300310F10CF00CFF3E4A
:1039AE00031DD32C70087104031DDE2CDF2CC12CDB
:1039BE007508F1007408F0000800F800F401F50134
:1039CE007008F200F3017208F6007308F700781C15
:1039DE00F12CF22CF82C7608F4070318F50A770868
:1039EE00F50701300310F60DF70DFF3E031DF92C00
:1039FE000310F80C7808031D052D062DEE2C750806
:103A0E00F1007408F0000800700871040319102DFD
:103A1E00112D402DF501F50A1F2D01300310F00D6B
:103A2E00F10DFF3E031D152D0130F4007408F5074E
:103A3E00F11F222D232D142D71087302031D292D24
:103A4E0070087202031C2C2D2D2D332D7008F202DE
:103A5E007108031CF303F30201300310F10CF00C98
:103A6E00FF3E031D342D0130F502031D3F2D402D69
:103A7E00232D7308F1007208F0000800FB01FC0111
:103A8E007608770403194C2D4D2D842DFD01FD0A6A
:103A9E005B2D01300310F60DF70DFF3E031D512D6A
:103AAE000130FA007A08FD07F71F5E2D5F2D502DAD
:103ABE0001300310FB0DFC0DFF3E031D602D77083A
:103ACE007902031D6C2D76087802031C6F2D702D64
:103ADE00772D7608F8027708031CF903F9027B1498
:103AEE0001300310F70CF60CFF3E031D782D01304C
:103AFE00FD02031D832D842D5F2D7C08F7007B08AE
:103B0E00F600080000307005F80000307105F9006D
:103B1E0080307205FA007F307305FB007B087A0453
:103B2E0079047804031D9C2D9D2DA52D0030F300E6
:103B3E000030F2000030F1000030F000003074056B
:103B4E00F80000307505F90080307605FA007F30F8
:103B5E007705FB007B087A0479047804031DB82DE1
:103B6E00B92DC12D0030F7000030F6000030F50001
:103B7E000030F40077087306031DCF2D7608720609
:103B8E00031DCF2D75087106031DCF2D7408700609
:103B9E000319D22DD32DD52D0310D62D03140800C5
:103BAE0073087204710470040319DE2DDF2D222EAA
:103BBE00F901F90AEF2D0130F8000310F00DF10DA7
:103BCE00F20DF30DF80BE42D0130F8007808F9072B
:103BDE00F31FF22DF32DE22D73087702031D012E34
:103BEE0072087602031D012E71087502031D012E47
:103BFE0070087402031C042E052E132E7008F40296
:103C0E007108031C710FF5027208031C720FF60285
:103C1E007308031C730FF70201300310F30CF20C40
:103C2E00F10CF00CFF3E031D142E0130F902031DA2
:103C3E00212E222EF32D7708F3007608F200750858
:103C4E00F1007408F0000800F601F31F2F2E302E3D
:103C5E00372EF209F309F20A0319F30AF601F60AEE
:103C6E00F11F3A2E3B2E402EF009F109F00A0319EE
:103C7E00F10A700871040319452E462E752EF501B2
:103C8E00F50A542E01300310F00DF10DFF3E031D09
:103C9E004A2E0130F4007408F507F11F572E582EE6
:103CAE00492E71087302031D5E2E70087202031CEA
:103CBE00612E622E682E7008F2027108031CF30347
:103CCE00F30201300310F10CF00CFF3E031D692EC0
:103CDE000130F502031D742E752E582E7608031929
:103CEE00792E7A2E7F2EF209F309F20A0319F30ABE
:103CFE007308F1007208F0000800F200BA2E8F303F
:103D0E00831603138F05DC2E831603130F088F39CA
:103D1E0010388F00DC2E831603130F088F392038CE
:103D2E008F00DC2E831603130F088F3930388F0067
:103D3E00DC2E831603130F088F3940388F00DC2ECC
:103D4E00831603130F088F3950388F00DC2E83161D
:103D5E0003130F088F3960388F00DC2E70308316F6
:103D6E0003138F04DC2E7208F000F1017108003A83
:103D7E000319C22EDC2E7008013A0319862E033A5F
:103D8E0003198B2E013A0319922E073A0319992E15
:103D9E00013A0319A02E033A0319A72E013A03196B
:103DAE00AE2E0F3A0319B52EDC2E831603130F1405
:103DBE0008000030FC000030FB000030FA0000303C
:103DCE00F90073087204710470040319EF2EF02EBB
:103DDE003D2FFD01FD0A002F0130F8000310F00DFC
:103DEE00F10DF20DF30DF80BF52E0130F8007808F9
:103DFE00FD07F31F032F042FF32E0130F8000310DD
:103E0E00F90DFA0DFB0DFC0DF80B062F730877025A
:103E1E00031D1B2F72087602031D1B2F71087502DE
:103E2E00031D1B2F70087402031C1E2F1F2F2E2F15
:103E3E007008F4027108031C710FF5027208031C5E
:103E4E00720FF6027308031C730FF7027914013018
:103E5E000310F30CF20CF10CF00CFF3E031D2F2F90
:103E6E000130FD02031D3C2F3D2F042F7C08F30073
:103E7E007B08F2007A08F1007908F0000800F800DB
:103E8E00780803194B2F4C2F602FF31F4F2F502FF5
:103E9E00602F7009FA007109FB007209FC007309AA
:103EAE00FD00FA0A0319FB0A0319FC0A0319FD0A9D
:103EBE00682F7308FD007208FC007108FB00700883
:103ECE00FA007308720471047004031D6F2F702FB3
:103EDE00792F0030F3000030F2000030F100003096
:103EEE00F000FF2F9630F4007408F9008B2F01308C
:103EFE00F4007408F90701300310FD0CFC0CFB0CE8
:103F0E00FA0CFF3E031D832FFE307D05031D902FFF
:103F1E00912F7E2FAD2F0130F4007408F907013078
:103F2E00FA07003003180130FB0700300318013088
:103F3E00FC07003003180130FD0701300310FD0CA3
:103F4E00FC0CFB0CFA0CFF3E031DA52FFF307D056C
:103F5E00031DB22FB32F922FBF2F0130F902013064
:103F6E00F4000310FA0DFB0DFC0DFD0DF40BB82F34
:103F7E00FC1BC22FC32FC92F023079020318C82F82
:103F8E00C92FB42F7918CC2FCD2FD52FFF30FA058E
:103F9E00FF30FB057F30FC05FF30FD050310F90CEB
:103FAE007908F400F501F601F70118300310F40D4D
:103FBE00F50DF60DF70DFF3E031DDD2F7408FA0407
:103FCE007508FB047608FC047708FD0478080319CD
:103FDE00F12FF22FF72FF31FF52FF62FF72FFD17D7
:103FEE007D08F3007C08F2007B08F1007A08F000EF
:023FFE000800B9
:04400E00D420FF3F7C
:00000001FF
