:020000040000FA
:100000000A128A11EB2FFF1B0D2883137F18831709
:100010000008840A0319FF0A080000308A00040857
:10002000840A82070034533431343A342034203483
:1000300020342034533432343A34203420342034C1
:08004000533433343A34003428
:1001E6000A128A110F210A128A1183160313111497
:1001F60008000A128A110F210A128A1183160313A4
:10020600111508000A128A110F210A128A117008A4
:100216008312031393000800831603131419142979
:1002260015290F2911081F39031D1A291B290F2902
:100236000800F10071088312031388000910891061
:1002460009151A30F000F00B26290000831203135B
:1002560009111A30F000F00B2E2900000800F300F7
:10026600730803193729382940297208C03E0A1233
:100276008A111C210A128A1147297208803E0A1225
:100286008A111C210A128A110800F1004230F0007E
:10029600F00B4B2900007108831203138800091420
:1002A60089100630F000F00B562900008312031364
:1002B60009150630F000F00B5E29000083120313C7
:1002C6000911080081294230F400F40B6829000066
:1002D600730883120313FF00720884000A128A113E
:1002E60003200A128A110A128A1148210A128A1157
:1002F6000130F2070318F30A0030F307730883127C
:100306000313FF00720884000A128A1103200A12DE
:100316008A11003A031D90299129662908000A12BC
:100326008A110F210A128A118316031391150A12D4
:100336008A110F210A128A11831203131308F2007D
:10034600F3017208F4007308F5000A128A110F21EE
:100356000A128A1170037104031DB229B329B72941
:10036600831603139112BA298316031391161116D5
:100376007508F1007408F000080028308312031392
:100386009400831603139101831203132F08B300FD
:100396003008B4003108B5003208B6000230031048
:1003A600B30DB40DB50DB60DFF3E031DD2293608AB
:1003B600F3003508F2003408F1003308F00000308D
:1003C600F7007A30F6001230F5000030F4000A1219
:1003D6008A1194220A128A117008FF3E83160313AB
:1003E60093009401871507160800831203138801EA
:1003F600091089103430F300F130F200F20B012AB3
:10040600F30B012A062A30300A128A111C210A121D
:100416008A110D30F300FB30F200F20B102AF30BB9
:10042600102A152A30300A128A111C210A128A1142
:100436008530F200F20B1D2A30300A128A111C2177
:100446000A128A1138300A128A111C210A128A11DC
:100456000C300A128A111C210A128A1106300A125D
:100466008A111C210A128A110800F2006E2A8F30A6
:10047600831603138F05902A831603130F088F39EB
:1004860010388F00902A831603130F088F392038EF
:100496008F00902A831603130F088F3930388F0088
:1004A600902A831603130F088F3940388F00902A3D
:1004B600831603130F088F3950388F00902A83163E
:1004C60003130F088F3960388F00902A7030831617
:1004D60003138F04902A7208F000F1017108003AA4
:1004E6000319762A902A7008013A03193A2A033A20
:1004F60003193F2A013A0319462A073A03194D2AD6
:10050600013A0319542A033A03195B2A013A0319DB
:10051600622A0F3A0319692A902A831603130F14C5
:1005260008000030FC000030FB000030FA0000300C
:10053600F90073087204710470040319A32AA42A2B
:10054600F12AFD01FD0AB42A0130F8000310F00D6E
:10055600F10DF20DF30DF80BA92A0130F800780819
:10056600FD07F31FB72AB82AA72A0130F80003109F
:10057600F90DFA0DFB0DFC0DF80BBA2A730877027C
:10058600031DCF2A72087602031DCF2A7108750251
:10059600031DCF2A70087402031CD22AD32AE22A2A
:1005A6007008F4027108031C710FF5027208031C2F
:1005B600720FF6027308031C730FF70279140130E9
:1005C6000310F30CF20CF10CF00CFF3E031DE32AB2
:1005D6000130FD02031DF02AF12AB82A7C08F30037
:1005E6007B08F2007A08F1007908F0000800FC01A7
:1005F6000030FB000030FA000030F9000030F8004F
:10060600342B9C30F400FF30F500FF30F600FF304D
:10061600F7007008F40771080318710F132B142BD9
:10062600F50772080318720F192B1A2BF6077308B1
:100636000318730AF7077708F3007608F2007508BF
:10064600F1007408F0000130F8070030031801309B
:10065600F907003003180130FA070030031801309B
:10066600FB077308031D442B7208031D442B7108F6
:10067600031D442B64307002031D412B0318442BC9
:10068600452B042B782B3030F4007408FC00A72B84
:100696003130F4007408FC00A72B3230F4007408E3
:1006A600FC00A72B3330F4007408FC00A72B343071
:1006B600F4007408FC00A72B3530F4007408FC0025
:1006C600A72B3630F4007408FC00A72B3730F40053
:1006D6007408FC00A72B3830F4007408FC00A72B24
:1006E6003930F4007408FC00A72B7B08003A031984
:1006F600A22BA72B7908003A0319822BA72B78087F
:10070600003A0319462B013A03194B2B033A0319F6
:10071600502B013A0319552B073A03195A2B013A64
:1007260003195F2B033A0319642B013A0319692B4A
:100736000F3A03196E2B013A0319732BA72B7A086C
:10074600003A03197D2BA72B7C080800FC0100301A
:10075600FB000030FA000030F9000030F800D52B1D
:100766009C30F400FF30F500FF30F600FF30F70054
:100776007008F40771080318710FC22BC32BF50715
:1007860072080318720FC82BC92BF60773080318D3
:10079600730AF7077708F3007608F2007508F10088
:1007A6007408F0007308031DE52B7208031DE52B82
:1007B6007108031DE52B64307002031DE22B03183C
:1007C600E52BE62BB32B172CF630F400FF30F500A3
:1007D600FF30F600FF30F7007008F40771080318C1
:1007E600710FF62BF72BF50772080318720FFC2B07
:1007F600FD2BF60773080318730AF7077708F3004B
:100806007608F2007508F1007408F0000130F80768
:10081600003003180130F907003003180130FA07D9
:10082600003003180130FB077308031D272C7208DC
:10083600031D272C7108031D272C0A307002031D87
:10084600242C0318272C282CE72B5B2C3030F400A3
:100856007408FC008A2C3130F4007408FC008A2CE1
:100866003230F4007408FC008A2C3330F40074082B
:10087600FC008A2C3430F4007408FC008A2C3530D5
:10088600F4007408FC008A2C3630F4007408FC006E
:100896008A2C3730F4007408FC008A2C3830F400B7
:1008A6007408FC008A2C3930F4007408FC008A2C89
:1008B6007B08003A0319852C8A2C7908003A03191B
:1008C600652C8A2C7808003A0319292C013A031959
:1008D6002E2C033A0319332C013A0319382C073A04
:1008E60003193D2C013A0319422C033A0319472CEC
:1008F600013A03194C2C0F3A0319512C013A0319EA
:10090600562C8A2C7A08003A0319602C8A2C7C080B
:100916000800FC010030FB000030FA000030F9004E
:100926000030F800B82C9C30F400FF30F500FF30A2
:10093600F600FF30F7007008F40771080318710F0E
:10094600A52CA62CF50772080318720FAB2CAC2C3D
:10095600F60773080318730AF7077708F300760893
:10096600F2007508F1007408F0007308031DC82C26
:100976007208031DC82C7108031DC82C6430700250
:10098600031DC52C0318C82CC92C962CEC2CF6304C
:10099600F400FF30F500FF30F600FF30F700700876
:1009A600F40771080318710FD92CDA2CF5077208B1
:1009B6000318720FDF2CE02CF60773080318730A6E
:1009C600F7077708F3007608F2007508F100740857
:1009D600F0007308031DFC2C7208031DFC2C710823
:1009E600031DFC2C0A307002031DF92C0318FC2C85
:1009F600FD2CCA2C7308031D0D2D7208031D0D2D29
:100A06007108031D0D2D0A307002031D0A2D0318EF
:100A16000D2D0E2D492D7308FB007208FA00710882
:100A2600F9007008F800492D3030F4007408FC0015
:100A3600782D3130F4007408FC00782D3230F40043
:100A46007408FC00782D3330F4007408FC00782D0F
:100A56003430F4007408FC00782D3530F400740846
:100A6600FC00782D3630F4007408FC00782D373001
:100A7600F4007408FC00782D3830F4007408FC008B
:100A8600782D3930F4007408FC00782D7B08003A84
:100A96000319732D782D7908003A0319532D782DF3
:100AA6007808003A0319172D013A03191C2D033A49
:100AB6000319212D013A0319262D073A03192B2D67
:100AC600013A0319302D033A0319352D013A03195A
:100AD6003A2D0F3A03193F2D013A0319442D782D6B
:100AE6007A08003A03194E2D782D7C0808008316E3
:100AF600031788018901831603138501860188017E
:100B06008901831203138501860187018801890102
:100B160008300A128A1138220A128A11003083120A
:100B26000313B2000130B1008630B000A030AF0030
:100B36000A128A11C0210A128A110A128A11F82190
:100B46000A128A110A128A11F3200A128A11B13086
:100B5600F0000030F1000A128A1105210A128A11EA
:100B66000030F000F1000A128A1192210A128A114D
:100B7600700883120313B7003708AE000A128A11F1
:100B8600FC200A128A11033083120313B9000830BD
:100B9600B8007630B700B70BCE2DB80BCE2DB90BFB
:100BA600CE2D00000A128A11F3200A128A11903003
:100BB600F0000030F1000A128A1105210A128A118A
:100BC6000030F000F1000A128A1105210A128A117A
:100BD6000A128A11FC200A128A11033083120313A7
:100BE600B9000830B8007630B700B70BF82DB80B4F
:100BF600F82DB90BF82D00000A128A11F3200A12FB
:100C06008A119130F0000030F1000A128A11052194
:100C16000A128A110030F000F1000A128A1192219C
:100C26000A128A11710883120313A5007008A40022
:100C36000A128A11FC200A128A1103308312031346
:100C4600B9000830B8007630B700B70B282EB80BBD
:100C5600282EB90B282E00000A128A11F3200A1238
:100C66008A11C130F0000030F1000A128A11052104
:100C76000A128A110030F000F1000A128A1192213C
:100C86000A128A11700883120313B7003708A600E8
:100C96000A128A11FC200A128A11033083120313E6
:100CA600B9000830B8007630B700B70B582EB80B2D
:100CB600582EB90B582E0000F20100300A128A1184
:100CC60032210A128A11413083120313B700B70B7F
:100CD6006A2E6D2E0130F2008030F3000A128A115E
:100CE60065210A128A11413083120313B700B70B2C
:100CF6007A2E7D2E831203132E08B700B801031037
:100D0600370DA000380DA100A201A11BA2032208E5
:100D1600A3002308F3002208F2002108F1002008AE
:100D2600F0000A128A11FA220A128A118312031398
:100D3600B7003708AA002E30B7003708AB002308E3
:100D4600F3002208F2002108F1002008F0000A1240
:100D56008A11A9230A128A1183120313B7003708CE
:100D6600AC002308F3002208F2002108F100200855
:100D7600F0000A128A118C240A128A1183120313B4
:100D8600B7003708AD005630B7003708AE00F2019D
:100D960001300A128A1132210A128A114130831255
:100DA6000313B700B70BD52ED82E2A30F200003029
:100DB600F3000A128A1165210A128A114130831240
:100DC6000313B700B70BE52EE82E8312031326088C
:100DD600B700B801B901BA013A08F3003908F200C0
:100DE6003808F1003708F0000A128A11A9230A12FE
:100DF6008A1183120313BB003B08AD002608B70017
:100E0600B801B901BA013A08F3003908F200380806
:100E1600F1003708F0000A128A118C240A128A118E
:100E260083120313BB003B08AE000730B700370838
:100E3600F20001300A128A1132210A128A11413057
:100E460083120313B700B70B262F292F2D30F2007C
:100E56000030F3000A128A1165210A128A11413004
:100E660083120313B700B70B362F392F83120313E0
:100E76002508803AFF0080307F02031D442FBF30D3
:100E86002402031C472F482F8A2F8312031324089A
:100E9600003EB70025080318013EFF3EB800B7091B
:100EA600B809B70A0319B80A3708A4003808A50014
:100EB6002D30B7003708A7002408F0002508F100F8
:100EC6000030F11BFF30F200F3000A128A11A92349
:100ED6000A128A1183120313B7003708A8002408E0
:100EE600F0002508F1000030F11BFF30F200F3009E
:100EF6000A128A118C240A128A1183120313B7006C
:100F06003708A9004330B7003708AA00C62F831256
:100F160003132408F0002508F1000030F11BFF3010
:100F2600F200F3000A128A11FA220A128A118312B7
:100F36000313B7003708A7002408F0002508F100BE
:100F46000030F11BFF30F200F3000A128A11A923C8
:100F56000A128A1183120313B7003708A80024085F
:100F6600F0002508F1000030F11BFF30F200F3001D
:100F76000A128A118C240A128A1183120313B700EB
:100F86003708A900852F0C30B7003708F20001306A
:100F96000A128A1132210A128A114130831203136E
:100FA600B700B70BD42FD72F2730F2000030F3004D
:100FB6000A128A1165210A128A114130831203131B
:100FC600B700B70BE42FE72FA52D0A128A110028C8
:100FD60083120313A001A101A201A301A401A5018B
:100FE600A601A701A801A901AA01AB01AC01AD01A7
:0A0FF600AE0183010A128A117A2D60
:04400E00D420FF3F7C
:00000001FF
